{
	"contracts/ComRev.sol": {
		"ComRev": {
			"abi": [
				{
					"anonymous": false,
					"inputs": [
						{
							"indexed": true,
							"internalType": "address",
							"name": "_from",
							"type": "address"
						},
						{
							"indexed": false,
							"internalType": "uint256",
							"name": "_value",
							"type": "uint256"
						}
					],
					"name": "moneyGot",
					"type": "event"
				},
				{
					"inputs": [
						{
							"internalType": "bytes32",
							"name": "_hashedMove",
							"type": "bytes32"
						}
					],
					"name": "commitMove",
					"outputs": [],
					"stateMutability": "payable",
					"type": "function"
				},
				{
					"inputs": [
						{
							"internalType": "address",
							"name": "",
							"type": "address"
						}
					],
					"name": "commits",
					"outputs": [
						{
							"internalType": "bytes32",
							"name": "",
							"type": "bytes32"
						}
					],
					"stateMutability": "view",
					"type": "function"
				},
				{
					"inputs": [],
					"name": "payToWinner",
					"outputs": [],
					"stateMutability": "nonpayable",
					"type": "function"
				},
				{
					"inputs": [
						{
							"internalType": "address",
							"name": "",
							"type": "address"
						}
					],
					"name": "player2move",
					"outputs": [
						{
							"internalType": "uint256",
							"name": "",
							"type": "uint256"
						}
					],
					"stateMutability": "view",
					"type": "function"
				},
				{
					"inputs": [
						{
							"internalType": "uint256",
							"name": "",
							"type": "uint256"
						}
					],
					"name": "players",
					"outputs": [
						{
							"internalType": "address",
							"name": "",
							"type": "address"
						}
					],
					"stateMutability": "view",
					"type": "function"
				},
				{
					"inputs": [
						{
							"internalType": "uint256",
							"name": "_move",
							"type": "uint256"
						},
						{
							"internalType": "bytes32",
							"name": "_secret",
							"type": "bytes32"
						}
					],
					"name": "revealMove",
					"outputs": [],
					"stateMutability": "nonpayable",
					"type": "function"
				}
			],
			"devdoc": {
				"kind": "dev",
				"methods": {},
				"version": 1
			},
			"evm": {
				"assembly": "    /* \"contracts/ComRev.sol\":27:2280  contract ComRev {... */\n  mstore(0x40, 0x80)\n    /* \"contracts/ComRev.sol\":288:289  2 */\n  0x02\n    /* \"contracts/ComRev.sol\":274:290  new address[](2) */\n  0xffffffffffffffff\n  dup2\n  gt\n  iszero\n  tag_1\n  jumpi\n  tag_2\n  tag_3\n  jump\t// in\ntag_2:\ntag_1:\n  mload(0x40)\n  swap1\n  dup1\n  dup3\n  mstore\n  dup1\n  0x20\n  mul\n  0x20\n  add\n  dup3\n  add\n  0x40\n  mstore\n  dup1\n  iszero\n  tag_4\n  jumpi\n  dup2\n  0x20\n  add\n  0x20\n  dup3\n  mul\n  dup1\n  calldatasize\n  dup4\n  calldatacopy\n  dup1\n  dup3\n  add\n  swap2\n  pop\n  pop\n  swap1\n  pop\ntag_4:\n  pop\n    /* \"contracts/ComRev.sol\":247:290  address[] public players = new address[](2) */\n  0x00\n  swap1\n  dup1\n  mload\n  swap1\n  0x20\n  add\n  swap1\n  tag_5\n  swap3\n  swap2\n  swap1\n  tag_6\n  jump\t// in\ntag_5:\n  pop\n    /* \"contracts/ComRev.sol\":482:483  0 */\n  0x00\n    /* \"contracts/ComRev.sol\":459:483  uint playersRevealed = 0 */\n  0x03\n  sstore\n    /* \"contracts/ComRev.sol\":511:512  0 */\n  0x00\n    /* \"contracts/ComRev.sol\":490:512  uint currentPlayer = 0 */\n  0x04\n  sstore\n    /* \"contracts/ComRev.sol\":27:2280  contract ComRev {... */\n  callvalue\n  dup1\n  iszero\n  tag_7\n  jumpi\n  0x00\n  dup1\n  revert\ntag_7:\n  pop\n  jump(tag_8)\ntag_6:\n  dup3\n  dup1\n  sload\n  dup3\n  dup3\n  sstore\n  swap1\n  0x00\n  mstore\n  keccak256(0x00, 0x20)\n  swap1\n  dup2\n  add\n  swap3\n  dup3\n  iszero\n  tag_9\n  jumpi\n  swap2\n  0x20\n  mul\n  dup3\n  add\ntag_10:\n  dup3\n  dup2\n  gt\n  iszero\n  tag_11\n  jumpi\n  dup3\n  mload\n  dup3\n  exp(0x0100, 0x00)\n  dup2\n  sload\n  dup2\n  0xffffffffffffffffffffffffffffffffffffffff\n  mul\n  not\n  and\n  swap1\n  dup4\n  0xffffffffffffffffffffffffffffffffffffffff\n  and\n  mul\n  or\n  swap1\n  sstore\n  pop\n  swap2\n  0x20\n  add\n  swap2\n  swap1\n  0x01\n  add\n  swap1\n  jump(tag_10)\ntag_11:\ntag_9:\n  pop\n  swap1\n  pop\n  tag_12\n  swap2\n  swap1\n  tag_13\n  jump\t// in\ntag_12:\n  pop\n  swap1\n  jump\t// out\ntag_13:\ntag_14:\n  dup1\n  dup3\n  gt\n  iszero\n  tag_15\n  jumpi\n  0x00\n  dup2\n  0x00\n  swap1\n  sstore\n  pop\n  0x01\n  add\n  jump(tag_14)\ntag_15:\n  pop\n  swap1\n  jump\t// out\n    /* \"#utility.yul\":7:187   */\ntag_3:\n    /* \"#utility.yul\":55:132   */\n  0x4e487b7100000000000000000000000000000000000000000000000000000000\n    /* \"#utility.yul\":52:53   */\n  0x00\n    /* \"#utility.yul\":45:133   */\n  mstore\n    /* \"#utility.yul\":152:156   */\n  0x41\n    /* \"#utility.yul\":149:150   */\n  0x04\n    /* \"#utility.yul\":142:157   */\n  mstore\n    /* \"#utility.yul\":176:180   */\n  0x24\n    /* \"#utility.yul\":173:174   */\n  0x00\n    /* \"#utility.yul\":166:181   */\n  revert\n    /* \"contracts/ComRev.sol\":27:2280  contract ComRev {... */\ntag_8:\n  dataSize(sub_0)\n  dup1\n  dataOffset(sub_0)\n  0x00\n  codecopy\n  0x00\n  return\nstop\n\nsub_0: assembly {\n        /* \"contracts/ComRev.sol\":27:2280  contract ComRev {... */\n      mstore(0x40, 0x80)\n      jumpi(tag_1, lt(calldatasize, 0x04))\n      shr(0xe0, calldataload(0x00))\n      dup1\n      0x0d5cbcfd\n      eq\n      tag_2\n      jumpi\n      dup1\n      0x7b43a8e6\n      eq\n      tag_3\n      jumpi\n      dup1\n      0x7d1ddd34\n      eq\n      tag_4\n      jumpi\n      dup1\n      0xa9ea37b6\n      eq\n      tag_5\n      jumpi\n      dup1\n      0xd3e8cff9\n      eq\n      tag_6\n      jumpi\n      dup1\n      0xf71d96cb\n      eq\n      tag_7\n      jumpi\n    tag_1:\n      0x00\n      dup1\n      revert\n        /* \"contracts/ComRev.sol\":349:393  mapping (address => uint) public player2move */\n    tag_2:\n      callvalue\n      dup1\n      iszero\n      tag_8\n      jumpi\n      0x00\n      dup1\n      revert\n    tag_8:\n      pop\n      tag_9\n      0x04\n      dup1\n      calldatasize\n      sub\n      dup2\n      add\n      swap1\n      tag_10\n      swap2\n      swap1\n      tag_11\n      jump\t// in\n    tag_10:\n      tag_12\n      jump\t// in\n    tag_9:\n      mload(0x40)\n      tag_13\n      swap2\n      swap1\n      tag_14\n      jump\t// in\n    tag_13:\n      mload(0x40)\n      dup1\n      swap2\n      sub\n      swap1\n      return\n        /* \"contracts/ComRev.sol\":299:342  mapping (address => bytes32) public commits */\n    tag_3:\n      callvalue\n      dup1\n      iszero\n      tag_15\n      jumpi\n      0x00\n      dup1\n      revert\n    tag_15:\n      pop\n      tag_16\n      0x04\n      dup1\n      calldatasize\n      sub\n      dup2\n      add\n      swap1\n      tag_17\n      swap2\n      swap1\n      tag_11\n      jump\t// in\n    tag_17:\n      tag_18\n      jump\t// in\n    tag_16:\n      mload(0x40)\n      tag_19\n      swap2\n      swap1\n      tag_20\n      jump\t// in\n    tag_19:\n      mload(0x40)\n      dup1\n      swap2\n      sub\n      swap1\n      return\n        /* \"contracts/ComRev.sol\":951:1464  function revealMove(uint _move, bytes32 _secret) external gameFinished {... */\n    tag_4:\n      callvalue\n      dup1\n      iszero\n      tag_21\n      jumpi\n      0x00\n      dup1\n      revert\n    tag_21:\n      pop\n      tag_22\n      0x04\n      dup1\n      calldatasize\n      sub\n      dup2\n      add\n      swap1\n      tag_23\n      swap2\n      swap1\n      tag_24\n      jump\t// in\n    tag_23:\n      tag_25\n      jump\t// in\n    tag_22:\n      stop\n        /* \"contracts/ComRev.sol\":609:943  function commitMove(bytes32 _hashedMove) external payable {... */\n    tag_5:\n      tag_26\n      0x04\n      dup1\n      calldatasize\n      sub\n      dup2\n      add\n      swap1\n      tag_27\n      swap2\n      swap1\n      tag_28\n      jump\t// in\n    tag_27:\n      tag_29\n      jump\t// in\n    tag_26:\n      stop\n        /* \"contracts/ComRev.sol\":1472:2277  function payToWinner() external gameFinished {... */\n    tag_6:\n      callvalue\n      dup1\n      iszero\n      tag_30\n      jumpi\n      0x00\n      dup1\n      revert\n    tag_30:\n      pop\n      tag_31\n      tag_32\n      jump\t// in\n    tag_31:\n      stop\n        /* \"contracts/ComRev.sol\":247:290  address[] public players = new address[](2) */\n    tag_7:\n      callvalue\n      dup1\n      iszero\n      tag_33\n      jumpi\n      0x00\n      dup1\n      revert\n    tag_33:\n      pop\n      tag_34\n      0x04\n      dup1\n      calldatasize\n      sub\n      dup2\n      add\n      swap1\n      tag_35\n      swap2\n      swap1\n      tag_36\n      jump\t// in\n    tag_35:\n      tag_37\n      jump\t// in\n    tag_34:\n      mload(0x40)\n      tag_38\n      swap2\n      swap1\n      tag_39\n      jump\t// in\n    tag_38:\n      mload(0x40)\n      dup1\n      swap2\n      sub\n      swap1\n      return\n        /* \"contracts/ComRev.sol\":349:393  mapping (address => uint) public player2move */\n    tag_12:\n      mstore(0x20, 0x02)\n      dup1\n      0x00\n      mstore\n      keccak256(0x00, 0x40)\n      0x00\n      swap2\n      pop\n      swap1\n      pop\n      sload\n      dup2\n      jump\t// out\n        /* \"contracts/ComRev.sol\":299:342  mapping (address => bytes32) public commits */\n    tag_18:\n      mstore(0x20, 0x01)\n      dup1\n      0x00\n      mstore\n      keccak256(0x00, 0x40)\n      0x00\n      swap2\n      pop\n      swap1\n      pop\n      sload\n      dup2\n      jump\t// out\n        /* \"contracts/ComRev.sol\":951:1464  function revealMove(uint _move, bytes32 _secret) external gameFinished {... */\n    tag_25:\n        /* \"contracts/ComRev.sol\":579:580  2 */\n      0x02\n        /* \"contracts/ComRev.sol\":562:575  currentPlayer */\n      sload(0x04)\n        /* \"contracts/ComRev.sol\":562:580  currentPlayer == 2 */\n      eq\n        /* \"contracts/ComRev.sol\":554:581  require(currentPlayer == 2) */\n      tag_41\n      jumpi\n      0x00\n      dup1\n      revert\n    tag_41:\n        /* \"contracts/ComRev.sol\":1150:1151  2 */\n      0x02\n        /* \"contracts/ComRev.sol\":1132:1147  playersRevealed */\n      sload(0x03)\n        /* \"contracts/ComRev.sol\":1132:1151  playersRevealed < 2 */\n      lt\n        /* \"contracts/ComRev.sol\":1124:1152  require(playersRevealed < 2) */\n      tag_43\n      jumpi\n      0x00\n      dup1\n      revert\n    tag_43:\n        /* \"contracts/ComRev.sol\":1165:1179  bytes32 commit */\n      0x00\n        /* \"contracts/ComRev.sol\":1209:1214  _move */\n      dup3\n        /* \"contracts/ComRev.sol\":1216:1223  _secret */\n      dup3\n        /* \"contracts/ComRev.sol\":1225:1235  msg.sender */\n      caller\n        /* \"contracts/ComRev.sol\":1192:1236  abi.encodePacked(_move, _secret, msg.sender) */\n      add(0x20, mload(0x40))\n      tag_44\n      swap4\n      swap3\n      swap2\n      swap1\n      tag_45\n      jump\t// in\n    tag_44:\n      mload(0x40)\n      0x20\n      dup2\n      dup4\n      sub\n      sub\n      dup2\n      mstore\n      swap1\n      0x40\n      mstore\n        /* \"contracts/ComRev.sol\":1182:1237  keccak256(abi.encodePacked(_move, _secret, msg.sender)) */\n      dup1\n      mload\n      swap1\n      0x20\n      add\n      keccak256\n        /* \"contracts/ComRev.sol\":1165:1237  bytes32 commit = keccak256(abi.encodePacked(_move, _secret, msg.sender)) */\n      swap1\n      pop\n        /* \"contracts/ComRev.sol\":1276:1283  commits */\n      0x01\n        /* \"contracts/ComRev.sol\":1276:1295  commits[msg.sender] */\n      0x00\n        /* \"contracts/ComRev.sol\":1284:1294  msg.sender */\n      caller\n        /* \"contracts/ComRev.sol\":1276:1295  commits[msg.sender] */\n      0xffffffffffffffffffffffffffffffffffffffff\n      and\n      0xffffffffffffffffffffffffffffffffffffffff\n      and\n      dup2\n      mstore\n      0x20\n      add\n      swap1\n      dup2\n      mstore\n      0x20\n      add\n      0x00\n      keccak256\n      sload\n        /* \"contracts/ComRev.sol\":1266:1272  commit */\n      dup2\n        /* \"contracts/ComRev.sol\":1266:1295  commit == commits[msg.sender] */\n      eq\n        /* \"contracts/ComRev.sol\":1258:1296  require(commit == commits[msg.sender]) */\n      tag_46\n      jumpi\n      0x00\n      dup1\n      revert\n    tag_46:\n        /* \"contracts/ComRev.sol\":1342:1343  0 */\n      0x00\n        /* \"contracts/ComRev.sol\":1315:1326  player2move */\n      0x02\n        /* \"contracts/ComRev.sol\":1315:1338  player2move[msg.sender] */\n      0x00\n        /* \"contracts/ComRev.sol\":1327:1337  msg.sender */\n      caller\n        /* \"contracts/ComRev.sol\":1315:1338  player2move[msg.sender] */\n      0xffffffffffffffffffffffffffffffffffffffff\n      and\n      0xffffffffffffffffffffffffffffffffffffffff\n      and\n      dup2\n      mstore\n      0x20\n      add\n      swap1\n      dup2\n      mstore\n      0x20\n      add\n      0x00\n      keccak256\n      sload\n        /* \"contracts/ComRev.sol\":1315:1343  player2move[msg.sender] == 0 */\n      eq\n        /* \"contracts/ComRev.sol\":1307:1344  require(player2move[msg.sender] == 0) */\n      tag_47\n      jumpi\n      0x00\n      dup1\n      revert\n    tag_47:\n        /* \"contracts/ComRev.sol\":1364:1371  commits */\n      0x01\n        /* \"contracts/ComRev.sol\":1364:1383  commits[msg.sender] */\n      0x00\n        /* \"contracts/ComRev.sol\":1372:1382  msg.sender */\n      caller\n        /* \"contracts/ComRev.sol\":1364:1383  commits[msg.sender] */\n      0xffffffffffffffffffffffffffffffffffffffff\n      and\n      0xffffffffffffffffffffffffffffffffffffffff\n      and\n      dup2\n      mstore\n      0x20\n      add\n      swap1\n      dup2\n      mstore\n      0x20\n      add\n      0x00\n      keccak256\n        /* \"contracts/ComRev.sol\":1357:1383  delete commits[msg.sender] */\n      0x00\n      swap1\n      sstore\n        /* \"contracts/ComRev.sol\":1420:1425  _move */\n      dup3\n        /* \"contracts/ComRev.sol\":1394:1405  player2move */\n      0x02\n        /* \"contracts/ComRev.sol\":1394:1417  player2move[msg.sender] */\n      0x00\n        /* \"contracts/ComRev.sol\":1406:1416  msg.sender */\n      caller\n        /* \"contracts/ComRev.sol\":1394:1417  player2move[msg.sender] */\n      0xffffffffffffffffffffffffffffffffffffffff\n      and\n      0xffffffffffffffffffffffffffffffffffffffff\n      and\n      dup2\n      mstore\n      0x20\n      add\n      swap1\n      dup2\n      mstore\n      0x20\n      add\n      0x00\n      keccak256\n        /* \"contracts/ComRev.sol\":1394:1425  player2move[msg.sender] = _move */\n      dup2\n      swap1\n      sstore\n      pop\n        /* \"contracts/ComRev.sol\":1455:1456  1 */\n      0x01\n        /* \"contracts/ComRev.sol\":1436:1451  playersRevealed */\n      0x03\n      0x00\n        /* \"contracts/ComRev.sol\":1436:1456  playersRevealed += 1 */\n      dup3\n      dup3\n      sload\n      tag_48\n      swap2\n      swap1\n      tag_49\n      jump\t// in\n    tag_48:\n      swap3\n      pop\n      pop\n      dup2\n      swap1\n      sstore\n      pop\n        /* \"contracts/ComRev.sol\":1022:1464  {... */\n      pop\n        /* \"contracts/ComRev.sol\":951:1464  function revealMove(uint _move, bytes32 _secret) external gameFinished {... */\n      pop\n      pop\n      jump\t// out\n        /* \"contracts/ComRev.sol\":609:943  function commitMove(bytes32 _hashedMove) external payable {... */\n    tag_29:\n        /* \"contracts/ComRev.sol\":702:703  2 */\n      0x02\n        /* \"contracts/ComRev.sol\":686:699  currentPlayer */\n      sload(0x04)\n        /* \"contracts/ComRev.sol\":686:703  currentPlayer < 2 */\n      lt\n        /* \"contracts/ComRev.sol\":678:704  require(currentPlayer < 2) */\n      tag_51\n      jumpi\n      0x00\n      dup1\n      revert\n    tag_51:\n        /* \"contracts/ComRev.sol\":754:755  0 */\n      0x00\n        /* \"contracts/ComRev.sol\":746:756  bytes32(0) */\n      dup1\n      shl\n        /* \"contracts/ComRev.sol\":723:730  commits */\n      0x01\n        /* \"contracts/ComRev.sol\":723:742  commits[msg.sender] */\n      0x00\n        /* \"contracts/ComRev.sol\":731:741  msg.sender */\n      caller\n        /* \"contracts/ComRev.sol\":723:742  commits[msg.sender] */\n      0xffffffffffffffffffffffffffffffffffffffff\n      and\n      0xffffffffffffffffffffffffffffffffffffffff\n      and\n      dup2\n      mstore\n      0x20\n      add\n      swap1\n      dup2\n      mstore\n      0x20\n      add\n      0x00\n      keccak256\n      sload\n        /* \"contracts/ComRev.sol\":723:756  commits[msg.sender] == bytes32(0) */\n      eq\n        /* \"contracts/ComRev.sol\":715:757  require(commits[msg.sender] == bytes32(0)) */\n      tag_52\n      jumpi\n      0x00\n      dup1\n      revert\n    tag_52:\n        /* \"contracts/ComRev.sol\":795:805  msg.sender */\n      caller\n        /* \"contracts/ComRev.sol\":770:777  players */\n      0x00\n        /* \"contracts/ComRev.sol\":778:791  currentPlayer */\n      sload(0x04)\n        /* \"contracts/ComRev.sol\":770:792  players[currentPlayer] */\n      dup2\n      sload\n      dup2\n      lt\n      tag_53\n      jumpi\n      tag_54\n      tag_55\n      jump\t// in\n    tag_54:\n    tag_53:\n      swap1\n      0x00\n      mstore\n      keccak256(0x00, 0x20)\n      add\n      0x00\n        /* \"contracts/ComRev.sol\":770:805  players[currentPlayer] = msg.sender */\n      0x0100\n      exp\n      dup2\n      sload\n      dup2\n      0xffffffffffffffffffffffffffffffffffffffff\n      mul\n      not\n      and\n      swap1\n      dup4\n      0xffffffffffffffffffffffffffffffffffffffff\n      and\n      mul\n      or\n      swap1\n      sstore\n      pop\n        /* \"contracts/ComRev.sol\":838:849  _hashedMove */\n      dup1\n        /* \"contracts/ComRev.sol\":816:823  commits */\n      0x01\n        /* \"contracts/ComRev.sol\":816:835  commits[msg.sender] */\n      0x00\n        /* \"contracts/ComRev.sol\":824:834  msg.sender */\n      caller\n        /* \"contracts/ComRev.sol\":816:835  commits[msg.sender] */\n      0xffffffffffffffffffffffffffffffffffffffff\n      and\n      0xffffffffffffffffffffffffffffffffffffffff\n      and\n      dup2\n      mstore\n      0x20\n      add\n      swap1\n      dup2\n      mstore\n      0x20\n      add\n      0x00\n      keccak256\n        /* \"contracts/ComRev.sol\":816:849  commits[msg.sender] = _hashedMove */\n      dup2\n      swap1\n      sstore\n      pop\n        /* \"contracts/ComRev.sol\":877:878  1 */\n      0x01\n        /* \"contracts/ComRev.sol\":860:873  currentPlayer */\n      0x04\n      0x00\n        /* \"contracts/ComRev.sol\":860:878  currentPlayer += 1 */\n      dup3\n      dup3\n      sload\n      tag_57\n      swap2\n      swap1\n      tag_49\n      jump\t// in\n    tag_57:\n      swap3\n      pop\n      pop\n      dup2\n      swap1\n      sstore\n      pop\n        /* \"contracts/ComRev.sol\":913:923  msg.sender */\n      caller\n        /* \"contracts/ComRev.sol\":904:935  moneyGot(msg.sender, msg.value) */\n      0xffffffffffffffffffffffffffffffffffffffff\n      and\n      0xf31129d0fcfee805fd659b5716fd79d2f7b86a3e1a268808e2b563cacb0226f1\n        /* \"contracts/ComRev.sol\":925:934  msg.value */\n      callvalue\n        /* \"contracts/ComRev.sol\":904:935  moneyGot(msg.sender, msg.value) */\n      mload(0x40)\n      tag_58\n      swap2\n      swap1\n      tag_14\n      jump\t// in\n    tag_58:\n      mload(0x40)\n      dup1\n      swap2\n      sub\n      swap1\n      log2\n        /* \"contracts/ComRev.sol\":609:943  function commitMove(bytes32 _hashedMove) external payable {... */\n      pop\n      jump\t// out\n        /* \"contracts/ComRev.sol\":1472:2277  function payToWinner() external gameFinished {... */\n    tag_32:\n        /* \"contracts/ComRev.sol\":579:580  2 */\n      0x02\n        /* \"contracts/ComRev.sol\":562:575  currentPlayer */\n      sload(0x04)\n        /* \"contracts/ComRev.sol\":562:580  currentPlayer == 2 */\n      eq\n        /* \"contracts/ComRev.sol\":554:581  require(currentPlayer == 2) */\n      tag_60\n      jumpi\n      0x00\n      dup1\n      revert\n    tag_60:\n        /* \"contracts/ComRev.sol\":1553:1554  2 */\n      0x02\n        /* \"contracts/ComRev.sol\":1536:1549  currentPlayer */\n      sload(0x04)\n        /* \"contracts/ComRev.sol\":1536:1554  currentPlayer == 2 */\n      eq\n        /* \"contracts/ComRev.sol\":1528:1555  require(currentPlayer == 2) */\n      tag_62\n      jumpi\n      0x00\n      dup1\n      revert\n    tag_62:\n        /* \"contracts/ComRev.sol\":1576:1603  address payable firstPlayer */\n      0x00\n        /* \"contracts/ComRev.sol\":1614:1621  players */\n      dup1\n        /* \"contracts/ComRev.sol\":1622:1623  0 */\n      0x00\n        /* \"contracts/ComRev.sol\":1614:1624  players[0] */\n      dup2\n      sload\n      dup2\n      lt\n      tag_63\n      jumpi\n      tag_64\n      tag_55\n      jump\t// in\n    tag_64:\n    tag_63:\n      swap1\n      0x00\n      mstore\n      keccak256(0x00, 0x20)\n      add\n      0x00\n      swap1\n      sload\n      swap1\n      0x0100\n      exp\n      swap1\n      div\n      0xffffffffffffffffffffffffffffffffffffffff\n      and\n        /* \"contracts/ComRev.sol\":1576:1625  address payable firstPlayer = payable(players[0]) */\n      swap1\n      pop\n        /* \"contracts/ComRev.sol\":1636:1664  address payable secondPlayer */\n      0x00\n        /* \"contracts/ComRev.sol\":1675:1682  players */\n      dup1\n        /* \"contracts/ComRev.sol\":1683:1684  1 */\n      0x01\n        /* \"contracts/ComRev.sol\":1675:1685  players[1] */\n      dup2\n      sload\n      dup2\n      lt\n      tag_66\n      jumpi\n      tag_67\n      tag_55\n      jump\t// in\n    tag_67:\n    tag_66:\n      swap1\n      0x00\n      mstore\n      keccak256(0x00, 0x20)\n      add\n      0x00\n      swap1\n      sload\n      swap1\n      0x0100\n      exp\n      swap1\n      div\n      0xffffffffffffffffffffffffffffffffffffffff\n      and\n        /* \"contracts/ComRev.sol\":1636:1686  address payable secondPlayer = payable(players[1]) */\n      swap1\n      pop\n        /* \"contracts/ComRev.sol\":1699:1719  uint firstPlayerMove */\n      0x00\n        /* \"contracts/ComRev.sol\":1722:1733  player2move */\n      0x02\n        /* \"contracts/ComRev.sol\":1722:1746  player2move[firstPlayer] */\n      0x00\n        /* \"contracts/ComRev.sol\":1734:1745  firstPlayer */\n      dup5\n        /* \"contracts/ComRev.sol\":1722:1746  player2move[firstPlayer] */\n      0xffffffffffffffffffffffffffffffffffffffff\n      and\n      0xffffffffffffffffffffffffffffffffffffffff\n      and\n      dup2\n      mstore\n      0x20\n      add\n      swap1\n      dup2\n      mstore\n      0x20\n      add\n      0x00\n      keccak256\n      sload\n        /* \"contracts/ComRev.sol\":1699:1746  uint firstPlayerMove = player2move[firstPlayer] */\n      swap1\n      pop\n        /* \"contracts/ComRev.sol\":1757:1778  uint secondPlayerMove */\n      0x00\n        /* \"contracts/ComRev.sol\":1781:1792  player2move */\n      0x02\n        /* \"contracts/ComRev.sol\":1781:1806  player2move[secondPlayer] */\n      0x00\n        /* \"contracts/ComRev.sol\":1793:1805  secondPlayer */\n      dup5\n        /* \"contracts/ComRev.sol\":1781:1806  player2move[secondPlayer] */\n      0xffffffffffffffffffffffffffffffffffffffff\n      and\n      0xffffffffffffffffffffffffffffffffffffffff\n      and\n      dup2\n      mstore\n      0x20\n      add\n      swap1\n      dup2\n      mstore\n      0x20\n      add\n      0x00\n      keccak256\n      sload\n        /* \"contracts/ComRev.sol\":1757:1806  uint secondPlayerMove = player2move[secondPlayer] */\n      swap1\n      pop\n        /* \"contracts/ComRev.sol\":1841:1842  1 */\n      0x01\n        /* \"contracts/ComRev.sol\":1822:1837  firstPlayerMove */\n      dup3\n        /* \"contracts/ComRev.sol\":1822:1842  firstPlayerMove == 1 */\n      eq\n        /* \"contracts/ComRev.sol\":1822:1867  firstPlayerMove == 1 && secondPlayerMove == 3 */\n      dup1\n      iszero\n      tag_69\n      jumpi\n      pop\n        /* \"contracts/ComRev.sol\":1866:1867  3 */\n      0x03\n        /* \"contracts/ComRev.sol\":1846:1862  secondPlayerMove */\n      dup2\n        /* \"contracts/ComRev.sol\":1846:1867  secondPlayerMove == 3 */\n      eq\n        /* \"contracts/ComRev.sol\":1822:1867  firstPlayerMove == 1 && secondPlayerMove == 3 */\n    tag_69:\n        /* \"contracts/ComRev.sol\":1819:2270  if(firstPlayerMove == 1 && secondPlayerMove == 3) {... */\n      iszero\n      tag_70\n      jumpi\n        /* \"contracts/ComRev.sol\":1884:1895  firstPlayer */\n      dup4\n        /* \"contracts/ComRev.sol\":1884:1904  firstPlayer.transfer */\n      0xffffffffffffffffffffffffffffffffffffffff\n      and\n        /* \"contracts/ComRev.sol\":1884:1927  firstPlayer.transfer(address(this).balance) */\n      0x08fc\n        /* \"contracts/ComRev.sol\":1905:1926  address(this).balance */\n      selfbalance\n        /* \"contracts/ComRev.sol\":1884:1927  firstPlayer.transfer(address(this).balance) */\n      swap1\n      dup2\n      iszero\n      mul\n      swap1\n      mload(0x40)\n      0x00\n      mload(0x40)\n      dup1\n      dup4\n      sub\n      dup2\n      dup6\n      dup9\n      dup9\n      call\n      swap4\n      pop\n      pop\n      pop\n      pop\n      iszero\n      dup1\n      iszero\n      tag_72\n      jumpi\n      returndatasize\n      0x00\n      dup1\n      returndatacopy\n      revert(0x00, returndatasize)\n    tag_72:\n      pop\n        /* \"contracts/ComRev.sol\":1819:2270  if(firstPlayerMove == 1 && secondPlayerMove == 3) {... */\n      jump(tag_73)\n    tag_70:\n        /* \"contracts/ComRev.sol\":1968:1969  2 */\n      0x02\n        /* \"contracts/ComRev.sol\":1949:1964  firstPlayerMove */\n      dup3\n        /* \"contracts/ComRev.sol\":1949:1969  firstPlayerMove == 2 */\n      eq\n        /* \"contracts/ComRev.sol\":1949:1994  firstPlayerMove == 2 && secondPlayerMove == 1 */\n      dup1\n      iszero\n      tag_74\n      jumpi\n      pop\n        /* \"contracts/ComRev.sol\":1993:1994  1 */\n      0x01\n        /* \"contracts/ComRev.sol\":1973:1989  secondPlayerMove */\n      dup2\n        /* \"contracts/ComRev.sol\":1973:1994  secondPlayerMove == 1 */\n      eq\n        /* \"contracts/ComRev.sol\":1949:1994  firstPlayerMove == 2 && secondPlayerMove == 1 */\n    tag_74:\n        /* \"contracts/ComRev.sol\":1945:2270  if (firstPlayerMove == 2 && secondPlayerMove == 1) {... */\n      iszero\n      tag_75\n      jumpi\n        /* \"contracts/ComRev.sol\":2011:2022  firstPlayer */\n      dup4\n        /* \"contracts/ComRev.sol\":2011:2031  firstPlayer.transfer */\n      0xffffffffffffffffffffffffffffffffffffffff\n      and\n        /* \"contracts/ComRev.sol\":2011:2054  firstPlayer.transfer(address(this).balance) */\n      0x08fc\n        /* \"contracts/ComRev.sol\":2032:2053  address(this).balance */\n      selfbalance\n        /* \"contracts/ComRev.sol\":2011:2054  firstPlayer.transfer(address(this).balance) */\n      swap1\n      dup2\n      iszero\n      mul\n      swap1\n      mload(0x40)\n      0x00\n      mload(0x40)\n      dup1\n      dup4\n      sub\n      dup2\n      dup6\n      dup9\n      dup9\n      call\n      swap4\n      pop\n      pop\n      pop\n      pop\n      iszero\n      dup1\n      iszero\n      tag_77\n      jumpi\n      returndatasize\n      0x00\n      dup1\n      returndatacopy\n      revert(0x00, returndatasize)\n    tag_77:\n      pop\n        /* \"contracts/ComRev.sol\":1945:2270  if (firstPlayerMove == 2 && secondPlayerMove == 1) {... */\n      jump(tag_78)\n    tag_75:\n        /* \"contracts/ComRev.sol\":2095:2096  3 */\n      0x03\n        /* \"contracts/ComRev.sol\":2076:2091  firstPlayerMove */\n      dup3\n        /* \"contracts/ComRev.sol\":2076:2096  firstPlayerMove == 3 */\n      eq\n        /* \"contracts/ComRev.sol\":2076:2121  firstPlayerMove == 3 && secondPlayerMove == 2 */\n      dup1\n      iszero\n      tag_79\n      jumpi\n      pop\n        /* \"contracts/ComRev.sol\":2120:2121  2 */\n      0x02\n        /* \"contracts/ComRev.sol\":2100:2116  secondPlayerMove */\n      dup2\n        /* \"contracts/ComRev.sol\":2100:2121  secondPlayerMove == 2 */\n      eq\n        /* \"contracts/ComRev.sol\":2076:2121  firstPlayerMove == 3 && secondPlayerMove == 2 */\n    tag_79:\n        /* \"contracts/ComRev.sol\":2072:2270  if (firstPlayerMove == 3 && secondPlayerMove == 2) {... */\n      iszero\n      tag_80\n      jumpi\n        /* \"contracts/ComRev.sol\":2138:2149  firstPlayer */\n      dup4\n        /* \"contracts/ComRev.sol\":2138:2158  firstPlayer.transfer */\n      0xffffffffffffffffffffffffffffffffffffffff\n      and\n        /* \"contracts/ComRev.sol\":2138:2181  firstPlayer.transfer(address(this).balance) */\n      0x08fc\n        /* \"contracts/ComRev.sol\":2159:2180  address(this).balance */\n      selfbalance\n        /* \"contracts/ComRev.sol\":2138:2181  firstPlayer.transfer(address(this).balance) */\n      swap1\n      dup2\n      iszero\n      mul\n      swap1\n      mload(0x40)\n      0x00\n      mload(0x40)\n      dup1\n      dup4\n      sub\n      dup2\n      dup6\n      dup9\n      dup9\n      call\n      swap4\n      pop\n      pop\n      pop\n      pop\n      iszero\n      dup1\n      iszero\n      tag_82\n      jumpi\n      returndatasize\n      0x00\n      dup1\n      returndatacopy\n      revert(0x00, returndatasize)\n    tag_82:\n      pop\n        /* \"contracts/ComRev.sol\":2072:2270  if (firstPlayerMove == 3 && secondPlayerMove == 2) {... */\n      jump(tag_83)\n    tag_80:\n        /* \"contracts/ComRev.sol\":2214:2226  secondPlayer */\n      dup3\n        /* \"contracts/ComRev.sol\":2214:2235  secondPlayer.transfer */\n      0xffffffffffffffffffffffffffffffffffffffff\n      and\n        /* \"contracts/ComRev.sol\":2214:2258  secondPlayer.transfer(address(this).balance) */\n      0x08fc\n        /* \"contracts/ComRev.sol\":2236:2257  address(this).balance */\n      selfbalance\n        /* \"contracts/ComRev.sol\":2214:2258  secondPlayer.transfer(address(this).balance) */\n      swap1\n      dup2\n      iszero\n      mul\n      swap1\n      mload(0x40)\n      0x00\n      mload(0x40)\n      dup1\n      dup4\n      sub\n      dup2\n      dup6\n      dup9\n      dup9\n      call\n      swap4\n      pop\n      pop\n      pop\n      pop\n      iszero\n      dup1\n      iszero\n      tag_85\n      jumpi\n      returndatasize\n      0x00\n      dup1\n      returndatacopy\n      revert(0x00, returndatasize)\n    tag_85:\n      pop\n        /* \"contracts/ComRev.sol\":2072:2270  if (firstPlayerMove == 3 && secondPlayerMove == 2) {... */\n    tag_83:\n        /* \"contracts/ComRev.sol\":1945:2270  if (firstPlayerMove == 2 && secondPlayerMove == 1) {... */\n    tag_78:\n        /* \"contracts/ComRev.sol\":1819:2270  if(firstPlayerMove == 1 && secondPlayerMove == 3) {... */\n    tag_73:\n        /* \"contracts/ComRev.sol\":1517:2277  {... */\n      pop\n      pop\n      pop\n      pop\n        /* \"contracts/ComRev.sol\":1472:2277  function payToWinner() external gameFinished {... */\n      jump\t// out\n        /* \"contracts/ComRev.sol\":247:290  address[] public players = new address[](2) */\n    tag_37:\n      0x00\n      dup2\n      dup2\n      sload\n      dup2\n      lt\n      tag_86\n      jumpi\n      0x00\n      dup1\n      revert\n    tag_86:\n      swap1\n      0x00\n      mstore\n      keccak256(0x00, 0x20)\n      add\n      0x00\n      swap2\n      pop\n      sload\n      swap1\n      0x0100\n      exp\n      swap1\n      div\n      0xffffffffffffffffffffffffffffffffffffffff\n      and\n      dup2\n      jump\t// out\n        /* \"#utility.yul\":88:205   */\n    tag_89:\n        /* \"#utility.yul\":197:198   */\n      0x00\n        /* \"#utility.yul\":194:195   */\n      dup1\n        /* \"#utility.yul\":187:199   */\n      revert\n        /* \"#utility.yul\":334:460   */\n    tag_91:\n        /* \"#utility.yul\":371:378   */\n      0x00\n        /* \"#utility.yul\":411:453   */\n      0xffffffffffffffffffffffffffffffffffffffff\n        /* \"#utility.yul\":404:409   */\n      dup3\n        /* \"#utility.yul\":400:454   */\n      and\n        /* \"#utility.yul\":389:454   */\n      swap1\n      pop\n        /* \"#utility.yul\":334:460   */\n      swap2\n      swap1\n      pop\n      jump\t// out\n        /* \"#utility.yul\":466:562   */\n    tag_92:\n        /* \"#utility.yul\":503:510   */\n      0x00\n        /* \"#utility.yul\":532:556   */\n      tag_119\n        /* \"#utility.yul\":550:555   */\n      dup3\n        /* \"#utility.yul\":532:556   */\n      tag_91\n      jump\t// in\n    tag_119:\n        /* \"#utility.yul\":521:556   */\n      swap1\n      pop\n        /* \"#utility.yul\":466:562   */\n      swap2\n      swap1\n      pop\n      jump\t// out\n        /* \"#utility.yul\":568:690   */\n    tag_93:\n        /* \"#utility.yul\":641:665   */\n      tag_121\n        /* \"#utility.yul\":659:664   */\n      dup2\n        /* \"#utility.yul\":641:665   */\n      tag_92\n      jump\t// in\n    tag_121:\n        /* \"#utility.yul\":634:639   */\n      dup2\n        /* \"#utility.yul\":631:666   */\n      eq\n        /* \"#utility.yul\":621:684   */\n      tag_122\n      jumpi\n        /* \"#utility.yul\":680:681   */\n      0x00\n        /* \"#utility.yul\":677:678   */\n      dup1\n        /* \"#utility.yul\":670:682   */\n      revert\n        /* \"#utility.yul\":621:684   */\n    tag_122:\n        /* \"#utility.yul\":568:690   */\n      pop\n      jump\t// out\n        /* \"#utility.yul\":696:835   */\n    tag_94:\n        /* \"#utility.yul\":742:747   */\n      0x00\n        /* \"#utility.yul\":780:786   */\n      dup2\n        /* \"#utility.yul\":767:787   */\n      calldataload\n        /* \"#utility.yul\":758:787   */\n      swap1\n      pop\n        /* \"#utility.yul\":796:829   */\n      tag_124\n        /* \"#utility.yul\":823:828   */\n      dup2\n        /* \"#utility.yul\":796:829   */\n      tag_93\n      jump\t// in\n    tag_124:\n        /* \"#utility.yul\":696:835   */\n      swap3\n      swap2\n      pop\n      pop\n      jump\t// out\n        /* \"#utility.yul\":841:1170   */\n    tag_11:\n        /* \"#utility.yul\":900:906   */\n      0x00\n        /* \"#utility.yul\":949:951   */\n      0x20\n        /* \"#utility.yul\":937:946   */\n      dup3\n        /* \"#utility.yul\":928:935   */\n      dup5\n        /* \"#utility.yul\":924:947   */\n      sub\n        /* \"#utility.yul\":920:952   */\n      slt\n        /* \"#utility.yul\":917:1036   */\n      iszero\n      tag_126\n      jumpi\n        /* \"#utility.yul\":955:1034   */\n      tag_127\n      tag_89\n      jump\t// in\n    tag_127:\n        /* \"#utility.yul\":917:1036   */\n    tag_126:\n        /* \"#utility.yul\":1075:1076   */\n      0x00\n        /* \"#utility.yul\":1100:1153   */\n      tag_128\n        /* \"#utility.yul\":1145:1152   */\n      dup5\n        /* \"#utility.yul\":1136:1142   */\n      dup3\n        /* \"#utility.yul\":1125:1134   */\n      dup6\n        /* \"#utility.yul\":1121:1143   */\n      add\n        /* \"#utility.yul\":1100:1153   */\n      tag_94\n      jump\t// in\n    tag_128:\n        /* \"#utility.yul\":1090:1153   */\n      swap2\n      pop\n        /* \"#utility.yul\":1046:1163   */\n      pop\n        /* \"#utility.yul\":841:1170   */\n      swap3\n      swap2\n      pop\n      pop\n      jump\t// out\n        /* \"#utility.yul\":1176:1253   */\n    tag_95:\n        /* \"#utility.yul\":1213:1220   */\n      0x00\n        /* \"#utility.yul\":1242:1247   */\n      dup2\n        /* \"#utility.yul\":1231:1247   */\n      swap1\n      pop\n        /* \"#utility.yul\":1176:1253   */\n      swap2\n      swap1\n      pop\n      jump\t// out\n        /* \"#utility.yul\":1259:1377   */\n    tag_96:\n        /* \"#utility.yul\":1346:1370   */\n      tag_131\n        /* \"#utility.yul\":1364:1369   */\n      dup2\n        /* \"#utility.yul\":1346:1370   */\n      tag_95\n      jump\t// in\n    tag_131:\n        /* \"#utility.yul\":1341:1344   */\n      dup3\n        /* \"#utility.yul\":1334:1371   */\n      mstore\n        /* \"#utility.yul\":1259:1377   */\n      pop\n      pop\n      jump\t// out\n        /* \"#utility.yul\":1383:1605   */\n    tag_14:\n        /* \"#utility.yul\":1476:1480   */\n      0x00\n        /* \"#utility.yul\":1514:1516   */\n      0x20\n        /* \"#utility.yul\":1503:1512   */\n      dup3\n        /* \"#utility.yul\":1499:1517   */\n      add\n        /* \"#utility.yul\":1491:1517   */\n      swap1\n      pop\n        /* \"#utility.yul\":1527:1598   */\n      tag_133\n        /* \"#utility.yul\":1595:1596   */\n      0x00\n        /* \"#utility.yul\":1584:1593   */\n      dup4\n        /* \"#utility.yul\":1580:1597   */\n      add\n        /* \"#utility.yul\":1571:1577   */\n      dup5\n        /* \"#utility.yul\":1527:1598   */\n      tag_96\n      jump\t// in\n    tag_133:\n        /* \"#utility.yul\":1383:1605   */\n      swap3\n      swap2\n      pop\n      pop\n      jump\t// out\n        /* \"#utility.yul\":1611:1688   */\n    tag_97:\n        /* \"#utility.yul\":1648:1655   */\n      0x00\n        /* \"#utility.yul\":1677:1682   */\n      dup2\n        /* \"#utility.yul\":1666:1682   */\n      swap1\n      pop\n        /* \"#utility.yul\":1611:1688   */\n      swap2\n      swap1\n      pop\n      jump\t// out\n        /* \"#utility.yul\":1694:1812   */\n    tag_98:\n        /* \"#utility.yul\":1781:1805   */\n      tag_136\n        /* \"#utility.yul\":1799:1804   */\n      dup2\n        /* \"#utility.yul\":1781:1805   */\n      tag_97\n      jump\t// in\n    tag_136:\n        /* \"#utility.yul\":1776:1779   */\n      dup3\n        /* \"#utility.yul\":1769:1806   */\n      mstore\n        /* \"#utility.yul\":1694:1812   */\n      pop\n      pop\n      jump\t// out\n        /* \"#utility.yul\":1818:2040   */\n    tag_20:\n        /* \"#utility.yul\":1911:1915   */\n      0x00\n        /* \"#utility.yul\":1949:1951   */\n      0x20\n        /* \"#utility.yul\":1938:1947   */\n      dup3\n        /* \"#utility.yul\":1934:1952   */\n      add\n        /* \"#utility.yul\":1926:1952   */\n      swap1\n      pop\n        /* \"#utility.yul\":1962:2033   */\n      tag_138\n        /* \"#utility.yul\":2030:2031   */\n      0x00\n        /* \"#utility.yul\":2019:2028   */\n      dup4\n        /* \"#utility.yul\":2015:2032   */\n      add\n        /* \"#utility.yul\":2006:2012   */\n      dup5\n        /* \"#utility.yul\":1962:2033   */\n      tag_98\n      jump\t// in\n    tag_138:\n        /* \"#utility.yul\":1818:2040   */\n      swap3\n      swap2\n      pop\n      pop\n      jump\t// out\n        /* \"#utility.yul\":2046:2168   */\n    tag_99:\n        /* \"#utility.yul\":2119:2143   */\n      tag_140\n        /* \"#utility.yul\":2137:2142   */\n      dup2\n        /* \"#utility.yul\":2119:2143   */\n      tag_95\n      jump\t// in\n    tag_140:\n        /* \"#utility.yul\":2112:2117   */\n      dup2\n        /* \"#utility.yul\":2109:2144   */\n      eq\n        /* \"#utility.yul\":2099:2162   */\n      tag_141\n      jumpi\n        /* \"#utility.yul\":2158:2159   */\n      0x00\n        /* \"#utility.yul\":2155:2156   */\n      dup1\n        /* \"#utility.yul\":2148:2160   */\n      revert\n        /* \"#utility.yul\":2099:2162   */\n    tag_141:\n        /* \"#utility.yul\":2046:2168   */\n      pop\n      jump\t// out\n        /* \"#utility.yul\":2174:2313   */\n    tag_100:\n        /* \"#utility.yul\":2220:2225   */\n      0x00\n        /* \"#utility.yul\":2258:2264   */\n      dup2\n        /* \"#utility.yul\":2245:2265   */\n      calldataload\n        /* \"#utility.yul\":2236:2265   */\n      swap1\n      pop\n        /* \"#utility.yul\":2274:2307   */\n      tag_143\n        /* \"#utility.yul\":2301:2306   */\n      dup2\n        /* \"#utility.yul\":2274:2307   */\n      tag_99\n      jump\t// in\n    tag_143:\n        /* \"#utility.yul\":2174:2313   */\n      swap3\n      swap2\n      pop\n      pop\n      jump\t// out\n        /* \"#utility.yul\":2319:2441   */\n    tag_101:\n        /* \"#utility.yul\":2392:2416   */\n      tag_145\n        /* \"#utility.yul\":2410:2415   */\n      dup2\n        /* \"#utility.yul\":2392:2416   */\n      tag_97\n      jump\t// in\n    tag_145:\n        /* \"#utility.yul\":2385:2390   */\n      dup2\n        /* \"#utility.yul\":2382:2417   */\n      eq\n        /* \"#utility.yul\":2372:2435   */\n      tag_146\n      jumpi\n        /* \"#utility.yul\":2431:2432   */\n      0x00\n        /* \"#utility.yul\":2428:2429   */\n      dup1\n        /* \"#utility.yul\":2421:2433   */\n      revert\n        /* \"#utility.yul\":2372:2435   */\n    tag_146:\n        /* \"#utility.yul\":2319:2441   */\n      pop\n      jump\t// out\n        /* \"#utility.yul\":2447:2586   */\n    tag_102:\n        /* \"#utility.yul\":2493:2498   */\n      0x00\n        /* \"#utility.yul\":2531:2537   */\n      dup2\n        /* \"#utility.yul\":2518:2538   */\n      calldataload\n        /* \"#utility.yul\":2509:2538   */\n      swap1\n      pop\n        /* \"#utility.yul\":2547:2580   */\n      tag_148\n        /* \"#utility.yul\":2574:2579   */\n      dup2\n        /* \"#utility.yul\":2547:2580   */\n      tag_101\n      jump\t// in\n    tag_148:\n        /* \"#utility.yul\":2447:2586   */\n      swap3\n      swap2\n      pop\n      pop\n      jump\t// out\n        /* \"#utility.yul\":2592:3066   */\n    tag_24:\n        /* \"#utility.yul\":2660:2666   */\n      0x00\n        /* \"#utility.yul\":2668:2674   */\n      dup1\n        /* \"#utility.yul\":2717:2719   */\n      0x40\n        /* \"#utility.yul\":2705:2714   */\n      dup4\n        /* \"#utility.yul\":2696:2703   */\n      dup6\n        /* \"#utility.yul\":2692:2715   */\n      sub\n        /* \"#utility.yul\":2688:2720   */\n      slt\n        /* \"#utility.yul\":2685:2804   */\n      iszero\n      tag_150\n      jumpi\n        /* \"#utility.yul\":2723:2802   */\n      tag_151\n      tag_89\n      jump\t// in\n    tag_151:\n        /* \"#utility.yul\":2685:2804   */\n    tag_150:\n        /* \"#utility.yul\":2843:2844   */\n      0x00\n        /* \"#utility.yul\":2868:2921   */\n      tag_152\n        /* \"#utility.yul\":2913:2920   */\n      dup6\n        /* \"#utility.yul\":2904:2910   */\n      dup3\n        /* \"#utility.yul\":2893:2902   */\n      dup7\n        /* \"#utility.yul\":2889:2911   */\n      add\n        /* \"#utility.yul\":2868:2921   */\n      tag_100\n      jump\t// in\n    tag_152:\n        /* \"#utility.yul\":2858:2921   */\n      swap3\n      pop\n        /* \"#utility.yul\":2814:2931   */\n      pop\n        /* \"#utility.yul\":2970:2972   */\n      0x20\n        /* \"#utility.yul\":2996:3049   */\n      tag_153\n        /* \"#utility.yul\":3041:3048   */\n      dup6\n        /* \"#utility.yul\":3032:3038   */\n      dup3\n        /* \"#utility.yul\":3021:3030   */\n      dup7\n        /* \"#utility.yul\":3017:3039   */\n      add\n        /* \"#utility.yul\":2996:3049   */\n      tag_102\n      jump\t// in\n    tag_153:\n        /* \"#utility.yul\":2986:3049   */\n      swap2\n      pop\n        /* \"#utility.yul\":2941:3059   */\n      pop\n        /* \"#utility.yul\":2592:3066   */\n      swap3\n      pop\n      swap3\n      swap1\n      pop\n      jump\t// out\n        /* \"#utility.yul\":3072:3401   */\n    tag_28:\n        /* \"#utility.yul\":3131:3137   */\n      0x00\n        /* \"#utility.yul\":3180:3182   */\n      0x20\n        /* \"#utility.yul\":3168:3177   */\n      dup3\n        /* \"#utility.yul\":3159:3166   */\n      dup5\n        /* \"#utility.yul\":3155:3178   */\n      sub\n        /* \"#utility.yul\":3151:3183   */\n      slt\n        /* \"#utility.yul\":3148:3267   */\n      iszero\n      tag_155\n      jumpi\n        /* \"#utility.yul\":3186:3265   */\n      tag_156\n      tag_89\n      jump\t// in\n    tag_156:\n        /* \"#utility.yul\":3148:3267   */\n    tag_155:\n        /* \"#utility.yul\":3306:3307   */\n      0x00\n        /* \"#utility.yul\":3331:3384   */\n      tag_157\n        /* \"#utility.yul\":3376:3383   */\n      dup5\n        /* \"#utility.yul\":3367:3373   */\n      dup3\n        /* \"#utility.yul\":3356:3365   */\n      dup6\n        /* \"#utility.yul\":3352:3374   */\n      add\n        /* \"#utility.yul\":3331:3384   */\n      tag_102\n      jump\t// in\n    tag_157:\n        /* \"#utility.yul\":3321:3384   */\n      swap2\n      pop\n        /* \"#utility.yul\":3277:3394   */\n      pop\n        /* \"#utility.yul\":3072:3401   */\n      swap3\n      swap2\n      pop\n      pop\n      jump\t// out\n        /* \"#utility.yul\":3407:3736   */\n    tag_36:\n        /* \"#utility.yul\":3466:3472   */\n      0x00\n        /* \"#utility.yul\":3515:3517   */\n      0x20\n        /* \"#utility.yul\":3503:3512   */\n      dup3\n        /* \"#utility.yul\":3494:3501   */\n      dup5\n        /* \"#utility.yul\":3490:3513   */\n      sub\n        /* \"#utility.yul\":3486:3518   */\n      slt\n        /* \"#utility.yul\":3483:3602   */\n      iszero\n      tag_159\n      jumpi\n        /* \"#utility.yul\":3521:3600   */\n      tag_160\n      tag_89\n      jump\t// in\n    tag_160:\n        /* \"#utility.yul\":3483:3602   */\n    tag_159:\n        /* \"#utility.yul\":3641:3642   */\n      0x00\n        /* \"#utility.yul\":3666:3719   */\n      tag_161\n        /* \"#utility.yul\":3711:3718   */\n      dup5\n        /* \"#utility.yul\":3702:3708   */\n      dup3\n        /* \"#utility.yul\":3691:3700   */\n      dup6\n        /* \"#utility.yul\":3687:3709   */\n      add\n        /* \"#utility.yul\":3666:3719   */\n      tag_100\n      jump\t// in\n    tag_161:\n        /* \"#utility.yul\":3656:3719   */\n      swap2\n      pop\n        /* \"#utility.yul\":3612:3729   */\n      pop\n        /* \"#utility.yul\":3407:3736   */\n      swap3\n      swap2\n      pop\n      pop\n      jump\t// out\n        /* \"#utility.yul\":3742:3860   */\n    tag_103:\n        /* \"#utility.yul\":3829:3853   */\n      tag_163\n        /* \"#utility.yul\":3847:3852   */\n      dup2\n        /* \"#utility.yul\":3829:3853   */\n      tag_92\n      jump\t// in\n    tag_163:\n        /* \"#utility.yul\":3824:3827   */\n      dup3\n        /* \"#utility.yul\":3817:3854   */\n      mstore\n        /* \"#utility.yul\":3742:3860   */\n      pop\n      pop\n      jump\t// out\n        /* \"#utility.yul\":3866:4088   */\n    tag_39:\n        /* \"#utility.yul\":3959:3963   */\n      0x00\n        /* \"#utility.yul\":3997:3999   */\n      0x20\n        /* \"#utility.yul\":3986:3995   */\n      dup3\n        /* \"#utility.yul\":3982:4000   */\n      add\n        /* \"#utility.yul\":3974:4000   */\n      swap1\n      pop\n        /* \"#utility.yul\":4010:4081   */\n      tag_165\n        /* \"#utility.yul\":4078:4079   */\n      0x00\n        /* \"#utility.yul\":4067:4076   */\n      dup4\n        /* \"#utility.yul\":4063:4080   */\n      add\n        /* \"#utility.yul\":4054:4060   */\n      dup5\n        /* \"#utility.yul\":4010:4081   */\n      tag_103\n      jump\t// in\n    tag_165:\n        /* \"#utility.yul\":3866:4088   */\n      swap3\n      swap2\n      pop\n      pop\n      jump\t// out\n        /* \"#utility.yul\":4094:4173   */\n    tag_104:\n        /* \"#utility.yul\":4133:4140   */\n      0x00\n        /* \"#utility.yul\":4162:4167   */\n      dup2\n        /* \"#utility.yul\":4151:4167   */\n      swap1\n      pop\n        /* \"#utility.yul\":4094:4173   */\n      swap2\n      swap1\n      pop\n      jump\t// out\n        /* \"#utility.yul\":4179:4336   */\n    tag_105:\n        /* \"#utility.yul\":4284:4329   */\n      tag_168\n        /* \"#utility.yul\":4304:4328   */\n      tag_169\n        /* \"#utility.yul\":4322:4327   */\n      dup3\n        /* \"#utility.yul\":4304:4328   */\n      tag_95\n      jump\t// in\n    tag_169:\n        /* \"#utility.yul\":4284:4329   */\n      tag_104\n      jump\t// in\n    tag_168:\n        /* \"#utility.yul\":4279:4282   */\n      dup3\n        /* \"#utility.yul\":4272:4330   */\n      mstore\n        /* \"#utility.yul\":4179:4336   */\n      pop\n      pop\n      jump\t// out\n        /* \"#utility.yul\":4342:4421   */\n    tag_106:\n        /* \"#utility.yul\":4381:4388   */\n      0x00\n        /* \"#utility.yul\":4410:4415   */\n      dup2\n        /* \"#utility.yul\":4399:4415   */\n      swap1\n      pop\n        /* \"#utility.yul\":4342:4421   */\n      swap2\n      swap1\n      pop\n      jump\t// out\n        /* \"#utility.yul\":4427:4584   */\n    tag_107:\n        /* \"#utility.yul\":4532:4577   */\n      tag_172\n        /* \"#utility.yul\":4552:4576   */\n      tag_173\n        /* \"#utility.yul\":4570:4575   */\n      dup3\n        /* \"#utility.yul\":4552:4576   */\n      tag_97\n      jump\t// in\n    tag_173:\n        /* \"#utility.yul\":4532:4577   */\n      tag_106\n      jump\t// in\n    tag_172:\n        /* \"#utility.yul\":4527:4530   */\n      dup3\n        /* \"#utility.yul\":4520:4578   */\n      mstore\n        /* \"#utility.yul\":4427:4584   */\n      pop\n      pop\n      jump\t// out\n        /* \"#utility.yul\":4590:4684   */\n    tag_108:\n        /* \"#utility.yul\":4623:4631   */\n      0x00\n        /* \"#utility.yul\":4671:4676   */\n      dup2\n        /* \"#utility.yul\":4667:4669   */\n      0x60\n        /* \"#utility.yul\":4663:4677   */\n      shl\n        /* \"#utility.yul\":4642:4677   */\n      swap1\n      pop\n        /* \"#utility.yul\":4590:4684   */\n      swap2\n      swap1\n      pop\n      jump\t// out\n        /* \"#utility.yul\":4690:4784   */\n    tag_109:\n        /* \"#utility.yul\":4729:4736   */\n      0x00\n        /* \"#utility.yul\":4758:4778   */\n      tag_176\n        /* \"#utility.yul\":4772:4777   */\n      dup3\n        /* \"#utility.yul\":4758:4778   */\n      tag_108\n      jump\t// in\n    tag_176:\n        /* \"#utility.yul\":4747:4778   */\n      swap1\n      pop\n        /* \"#utility.yul\":4690:4784   */\n      swap2\n      swap1\n      pop\n      jump\t// out\n        /* \"#utility.yul\":4790:4890   */\n    tag_110:\n        /* \"#utility.yul\":4829:4836   */\n      0x00\n        /* \"#utility.yul\":4858:4884   */\n      tag_178\n        /* \"#utility.yul\":4878:4883   */\n      dup3\n        /* \"#utility.yul\":4858:4884   */\n      tag_109\n      jump\t// in\n    tag_178:\n        /* \"#utility.yul\":4847:4884   */\n      swap1\n      pop\n        /* \"#utility.yul\":4790:4890   */\n      swap2\n      swap1\n      pop\n      jump\t// out\n        /* \"#utility.yul\":4896:5053   */\n    tag_111:\n        /* \"#utility.yul\":5001:5046   */\n      tag_180\n        /* \"#utility.yul\":5021:5045   */\n      tag_181\n        /* \"#utility.yul\":5039:5044   */\n      dup3\n        /* \"#utility.yul\":5021:5045   */\n      tag_92\n      jump\t// in\n    tag_181:\n        /* \"#utility.yul\":5001:5046   */\n      tag_110\n      jump\t// in\n    tag_180:\n        /* \"#utility.yul\":4996:4999   */\n      dup3\n        /* \"#utility.yul\":4989:5047   */\n      mstore\n        /* \"#utility.yul\":4896:5053   */\n      pop\n      pop\n      jump\t// out\n        /* \"#utility.yul\":5059:5597   */\n    tag_45:\n        /* \"#utility.yul\":5227:5230   */\n      0x00\n        /* \"#utility.yul\":5242:5317   */\n      tag_183\n        /* \"#utility.yul\":5313:5316   */\n      dup3\n        /* \"#utility.yul\":5304:5310   */\n      dup7\n        /* \"#utility.yul\":5242:5317   */\n      tag_105\n      jump\t// in\n    tag_183:\n        /* \"#utility.yul\":5342:5344   */\n      0x20\n        /* \"#utility.yul\":5337:5340   */\n      dup3\n        /* \"#utility.yul\":5333:5345   */\n      add\n        /* \"#utility.yul\":5326:5345   */\n      swap2\n      pop\n        /* \"#utility.yul\":5355:5430   */\n      tag_184\n        /* \"#utility.yul\":5426:5429   */\n      dup3\n        /* \"#utility.yul\":5417:5423   */\n      dup6\n        /* \"#utility.yul\":5355:5430   */\n      tag_107\n      jump\t// in\n    tag_184:\n        /* \"#utility.yul\":5455:5457   */\n      0x20\n        /* \"#utility.yul\":5450:5453   */\n      dup3\n        /* \"#utility.yul\":5446:5458   */\n      add\n        /* \"#utility.yul\":5439:5458   */\n      swap2\n      pop\n        /* \"#utility.yul\":5468:5543   */\n      tag_185\n        /* \"#utility.yul\":5539:5542   */\n      dup3\n        /* \"#utility.yul\":5530:5536   */\n      dup5\n        /* \"#utility.yul\":5468:5543   */\n      tag_111\n      jump\t// in\n    tag_185:\n        /* \"#utility.yul\":5568:5570   */\n      0x14\n        /* \"#utility.yul\":5563:5566   */\n      dup3\n        /* \"#utility.yul\":5559:5571   */\n      add\n        /* \"#utility.yul\":5552:5571   */\n      swap2\n      pop\n        /* \"#utility.yul\":5588:5591   */\n      dup2\n        /* \"#utility.yul\":5581:5591   */\n      swap1\n      pop\n        /* \"#utility.yul\":5059:5597   */\n      swap5\n      swap4\n      pop\n      pop\n      pop\n      pop\n      jump\t// out\n        /* \"#utility.yul\":5603:5783   */\n    tag_112:\n        /* \"#utility.yul\":5651:5728   */\n      0x4e487b7100000000000000000000000000000000000000000000000000000000\n        /* \"#utility.yul\":5648:5649   */\n      0x00\n        /* \"#utility.yul\":5641:5729   */\n      mstore\n        /* \"#utility.yul\":5748:5752   */\n      0x11\n        /* \"#utility.yul\":5745:5746   */\n      0x04\n        /* \"#utility.yul\":5738:5753   */\n      mstore\n        /* \"#utility.yul\":5772:5776   */\n      0x24\n        /* \"#utility.yul\":5769:5770   */\n      0x00\n        /* \"#utility.yul\":5762:5777   */\n      revert\n        /* \"#utility.yul\":5789:5980   */\n    tag_49:\n        /* \"#utility.yul\":5829:5832   */\n      0x00\n        /* \"#utility.yul\":5848:5868   */\n      tag_188\n        /* \"#utility.yul\":5866:5867   */\n      dup3\n        /* \"#utility.yul\":5848:5868   */\n      tag_95\n      jump\t// in\n    tag_188:\n        /* \"#utility.yul\":5843:5868   */\n      swap2\n      pop\n        /* \"#utility.yul\":5882:5902   */\n      tag_189\n        /* \"#utility.yul\":5900:5901   */\n      dup4\n        /* \"#utility.yul\":5882:5902   */\n      tag_95\n      jump\t// in\n    tag_189:\n        /* \"#utility.yul\":5877:5902   */\n      swap3\n      pop\n        /* \"#utility.yul\":5925:5926   */\n      dup3\n        /* \"#utility.yul\":5922:5923   */\n      dup3\n        /* \"#utility.yul\":5918:5927   */\n      add\n        /* \"#utility.yul\":5911:5927   */\n      swap1\n      pop\n        /* \"#utility.yul\":5946:5949   */\n      dup1\n        /* \"#utility.yul\":5943:5944   */\n      dup3\n        /* \"#utility.yul\":5940:5950   */\n      gt\n        /* \"#utility.yul\":5937:5973   */\n      iszero\n      tag_190\n      jumpi\n        /* \"#utility.yul\":5953:5971   */\n      tag_191\n      tag_112\n      jump\t// in\n    tag_191:\n        /* \"#utility.yul\":5937:5973   */\n    tag_190:\n        /* \"#utility.yul\":5789:5980   */\n      swap3\n      swap2\n      pop\n      pop\n      jump\t// out\n        /* \"#utility.yul\":5986:6166   */\n    tag_55:\n        /* \"#utility.yul\":6034:6111   */\n      0x4e487b7100000000000000000000000000000000000000000000000000000000\n        /* \"#utility.yul\":6031:6032   */\n      0x00\n        /* \"#utility.yul\":6024:6112   */\n      mstore\n        /* \"#utility.yul\":6131:6135   */\n      0x32\n        /* \"#utility.yul\":6128:6129   */\n      0x04\n        /* \"#utility.yul\":6121:6136   */\n      mstore\n        /* \"#utility.yul\":6155:6159   */\n      0x24\n        /* \"#utility.yul\":6152:6153   */\n      0x00\n        /* \"#utility.yul\":6145:6160   */\n      revert\n\n    auxdata: 0xa2646970667358221220c5156f408f13dc68a210b5039b518a0a39633dd0355d8980527ea447b3289d4064736f6c63430008110033\n}\n",
				"bytecode": {
					"linkReferences": {},
					"object": "6080604052600267ffffffffffffffff81111561001f5761001e610127565b5b60405190808252806020026020018201604052801561004d5781602001602082028036833780820191505090505b5060009080519060200190610063929190610080565b506000600355600060045534801561007a57600080fd5b50610156565b8280548282559060005260206000209081019282156100f9579160200282015b828111156100f85782518260006101000a81548173ffffffffffffffffffffffffffffffffffffffff021916908373ffffffffffffffffffffffffffffffffffffffff160217905550916020019190600101906100a0565b5b509050610106919061010a565b5090565b5b8082111561012357600081600090555060010161010b565b5090565b7f4e487b7100000000000000000000000000000000000000000000000000000000600052604160045260246000fd5b610b13806101656000396000f3fe6080604052600436106100555760003560e01c80630d5cbcfd1461005a5780637b43a8e6146100975780637d1ddd34146100d4578063a9ea37b6146100fd578063d3e8cff914610119578063f71d96cb14610130575b600080fd5b34801561006657600080fd5b50610081600480360381019061007c91906107d3565b61016d565b60405161008e9190610819565b60405180910390f35b3480156100a357600080fd5b506100be60048036038101906100b991906107d3565b610185565b6040516100cb919061084d565b60405180910390f35b3480156100e057600080fd5b506100fb60048036038101906100f691906108c0565b61019d565b005b61011760048036038101906101129190610900565b610327565b005b34801561012557600080fd5b5061012e610492565b005b34801561013c57600080fd5b506101576004803603810190610152919061092d565b610731565b6040516101649190610969565b60405180910390f35b60026020528060005260406000206000915090505481565b60016020528060005260406000206000915090505481565b6002600454146101ac57600080fd5b6002600354106101bb57600080fd5b60008282336040516020016101d293929190610a0e565b604051602081830303815290604052805190602001209050600160003373ffffffffffffffffffffffffffffffffffffffff1673ffffffffffffffffffffffffffffffffffffffff16815260200190815260200160002054811461023557600080fd5b6000600260003373ffffffffffffffffffffffffffffffffffffffff1673ffffffffffffffffffffffffffffffffffffffff168152602001908152602001600020541461028157600080fd5b600160003373ffffffffffffffffffffffffffffffffffffffff1673ffffffffffffffffffffffffffffffffffffffff1681526020019081526020016000206000905582600260003373ffffffffffffffffffffffffffffffffffffffff1673ffffffffffffffffffffffffffffffffffffffff1681526020019081526020016000208190555060016003600082825461031b9190610a7a565b92505081905550505050565b60026004541061033657600080fd5b6000801b600160003373ffffffffffffffffffffffffffffffffffffffff1673ffffffffffffffffffffffffffffffffffffffff168152602001908152602001600020541461038457600080fd5b3360006004548154811061039b5761039a610aae565b5b9060005260206000200160006101000a81548173ffffffffffffffffffffffffffffffffffffffff021916908373ffffffffffffffffffffffffffffffffffffffff16021790555080600160003373ffffffffffffffffffffffffffffffffffffffff1673ffffffffffffffffffffffffffffffffffffffff1681526020019081526020016000208190555060016004600082825461043a9190610a7a565b925050819055503373ffffffffffffffffffffffffffffffffffffffff167ff31129d0fcfee805fd659b5716fd79d2f7b86a3e1a268808e2b563cacb0226f1346040516104879190610819565b60405180910390a250565b6002600454146104a157600080fd5b6002600454146104b057600080fd5b6000806000815481106104c6576104c5610aae565b5b9060005260206000200160009054906101000a900473ffffffffffffffffffffffffffffffffffffffff16905060008060018154811061050957610508610aae565b5b9060005260206000200160009054906101000a900473ffffffffffffffffffffffffffffffffffffffff1690506000600260008473ffffffffffffffffffffffffffffffffffffffff1673ffffffffffffffffffffffffffffffffffffffff1681526020019081526020016000205490506000600260008473ffffffffffffffffffffffffffffffffffffffff1673ffffffffffffffffffffffffffffffffffffffff1681526020019081526020016000205490506001821480156105ce5750600381145b1561061f578373ffffffffffffffffffffffffffffffffffffffff166108fc479081150290604051600060405180830381858888f19350505050158015610619573d6000803e3d6000fd5b5061072b565b60028214801561062f5750600181145b15610680578373ffffffffffffffffffffffffffffffffffffffff166108fc479081150290604051600060405180830381858888f1935050505015801561067a573d6000803e3d6000fd5b5061072a565b6003821480156106905750600281145b156106e1578373ffffffffffffffffffffffffffffffffffffffff166108fc479081150290604051600060405180830381858888f193505050501580156106db573d6000803e3d6000fd5b50610729565b8273ffffffffffffffffffffffffffffffffffffffff166108fc479081150290604051600060405180830381858888f19350505050158015610727573d6000803e3d6000fd5b505b5b5b50505050565b6000818154811061074157600080fd5b906000526020600020016000915054906101000a900473ffffffffffffffffffffffffffffffffffffffff1681565b600080fd5b600073ffffffffffffffffffffffffffffffffffffffff82169050919050565b60006107a082610775565b9050919050565b6107b081610795565b81146107bb57600080fd5b50565b6000813590506107cd816107a7565b92915050565b6000602082840312156107e9576107e8610770565b5b60006107f7848285016107be565b91505092915050565b6000819050919050565b61081381610800565b82525050565b600060208201905061082e600083018461080a565b92915050565b6000819050919050565b61084781610834565b82525050565b6000602082019050610862600083018461083e565b92915050565b61087181610800565b811461087c57600080fd5b50565b60008135905061088e81610868565b92915050565b61089d81610834565b81146108a857600080fd5b50565b6000813590506108ba81610894565b92915050565b600080604083850312156108d7576108d6610770565b5b60006108e58582860161087f565b92505060206108f6858286016108ab565b9150509250929050565b60006020828403121561091657610915610770565b5b6000610924848285016108ab565b91505092915050565b60006020828403121561094357610942610770565b5b60006109518482850161087f565b91505092915050565b61096381610795565b82525050565b600060208201905061097e600083018461095a565b92915050565b6000819050919050565b61099f61099a82610800565b610984565b82525050565b6000819050919050565b6109c06109bb82610834565b6109a5565b82525050565b60008160601b9050919050565b60006109de826109c6565b9050919050565b60006109f0826109d3565b9050919050565b610a08610a0382610795565b6109e5565b82525050565b6000610a1a828661098e565b602082019150610a2a82856109af565b602082019150610a3a82846109f7565b601482019150819050949350505050565b7f4e487b7100000000000000000000000000000000000000000000000000000000600052601160045260246000fd5b6000610a8582610800565b9150610a9083610800565b9250828201905080821115610aa857610aa7610a4b565b5b92915050565b7f4e487b7100000000000000000000000000000000000000000000000000000000600052603260045260246000fdfea2646970667358221220c5156f408f13dc68a210b5039b518a0a39633dd0355d8980527ea447b3289d4064736f6c63430008110033",
					"opcodes": "PUSH1 0x80 PUSH1 0x40 MSTORE PUSH1 0x2 PUSH8 0xFFFFFFFFFFFFFFFF DUP2 GT ISZERO PUSH2 0x1F JUMPI PUSH2 0x1E PUSH2 0x127 JUMP JUMPDEST JUMPDEST PUSH1 0x40 MLOAD SWAP1 DUP1 DUP3 MSTORE DUP1 PUSH1 0x20 MUL PUSH1 0x20 ADD DUP3 ADD PUSH1 0x40 MSTORE DUP1 ISZERO PUSH2 0x4D JUMPI DUP2 PUSH1 0x20 ADD PUSH1 0x20 DUP3 MUL DUP1 CALLDATASIZE DUP4 CALLDATACOPY DUP1 DUP3 ADD SWAP2 POP POP SWAP1 POP JUMPDEST POP PUSH1 0x0 SWAP1 DUP1 MLOAD SWAP1 PUSH1 0x20 ADD SWAP1 PUSH2 0x63 SWAP3 SWAP2 SWAP1 PUSH2 0x80 JUMP JUMPDEST POP PUSH1 0x0 PUSH1 0x3 SSTORE PUSH1 0x0 PUSH1 0x4 SSTORE CALLVALUE DUP1 ISZERO PUSH2 0x7A JUMPI PUSH1 0x0 DUP1 REVERT JUMPDEST POP PUSH2 0x156 JUMP JUMPDEST DUP3 DUP1 SLOAD DUP3 DUP3 SSTORE SWAP1 PUSH1 0x0 MSTORE PUSH1 0x20 PUSH1 0x0 KECCAK256 SWAP1 DUP2 ADD SWAP3 DUP3 ISZERO PUSH2 0xF9 JUMPI SWAP2 PUSH1 0x20 MUL DUP3 ADD JUMPDEST DUP3 DUP2 GT ISZERO PUSH2 0xF8 JUMPI DUP3 MLOAD DUP3 PUSH1 0x0 PUSH2 0x100 EXP DUP2 SLOAD DUP2 PUSH20 0xFFFFFFFFFFFFFFFFFFFFFFFFFFFFFFFFFFFFFFFF MUL NOT AND SWAP1 DUP4 PUSH20 0xFFFFFFFFFFFFFFFFFFFFFFFFFFFFFFFFFFFFFFFF AND MUL OR SWAP1 SSTORE POP SWAP2 PUSH1 0x20 ADD SWAP2 SWAP1 PUSH1 0x1 ADD SWAP1 PUSH2 0xA0 JUMP JUMPDEST JUMPDEST POP SWAP1 POP PUSH2 0x106 SWAP2 SWAP1 PUSH2 0x10A JUMP JUMPDEST POP SWAP1 JUMP JUMPDEST JUMPDEST DUP1 DUP3 GT ISZERO PUSH2 0x123 JUMPI PUSH1 0x0 DUP2 PUSH1 0x0 SWAP1 SSTORE POP PUSH1 0x1 ADD PUSH2 0x10B JUMP JUMPDEST POP SWAP1 JUMP JUMPDEST PUSH32 0x4E487B7100000000000000000000000000000000000000000000000000000000 PUSH1 0x0 MSTORE PUSH1 0x41 PUSH1 0x4 MSTORE PUSH1 0x24 PUSH1 0x0 REVERT JUMPDEST PUSH2 0xB13 DUP1 PUSH2 0x165 PUSH1 0x0 CODECOPY PUSH1 0x0 RETURN INVALID PUSH1 0x80 PUSH1 0x40 MSTORE PUSH1 0x4 CALLDATASIZE LT PUSH2 0x55 JUMPI PUSH1 0x0 CALLDATALOAD PUSH1 0xE0 SHR DUP1 PUSH4 0xD5CBCFD EQ PUSH2 0x5A JUMPI DUP1 PUSH4 0x7B43A8E6 EQ PUSH2 0x97 JUMPI DUP1 PUSH4 0x7D1DDD34 EQ PUSH2 0xD4 JUMPI DUP1 PUSH4 0xA9EA37B6 EQ PUSH2 0xFD JUMPI DUP1 PUSH4 0xD3E8CFF9 EQ PUSH2 0x119 JUMPI DUP1 PUSH4 0xF71D96CB EQ PUSH2 0x130 JUMPI JUMPDEST PUSH1 0x0 DUP1 REVERT JUMPDEST CALLVALUE DUP1 ISZERO PUSH2 0x66 JUMPI PUSH1 0x0 DUP1 REVERT JUMPDEST POP PUSH2 0x81 PUSH1 0x4 DUP1 CALLDATASIZE SUB DUP2 ADD SWAP1 PUSH2 0x7C SWAP2 SWAP1 PUSH2 0x7D3 JUMP JUMPDEST PUSH2 0x16D JUMP JUMPDEST PUSH1 0x40 MLOAD PUSH2 0x8E SWAP2 SWAP1 PUSH2 0x819 JUMP JUMPDEST PUSH1 0x40 MLOAD DUP1 SWAP2 SUB SWAP1 RETURN JUMPDEST CALLVALUE DUP1 ISZERO PUSH2 0xA3 JUMPI PUSH1 0x0 DUP1 REVERT JUMPDEST POP PUSH2 0xBE PUSH1 0x4 DUP1 CALLDATASIZE SUB DUP2 ADD SWAP1 PUSH2 0xB9 SWAP2 SWAP1 PUSH2 0x7D3 JUMP JUMPDEST PUSH2 0x185 JUMP JUMPDEST PUSH1 0x40 MLOAD PUSH2 0xCB SWAP2 SWAP1 PUSH2 0x84D JUMP JUMPDEST PUSH1 0x40 MLOAD DUP1 SWAP2 SUB SWAP1 RETURN JUMPDEST CALLVALUE DUP1 ISZERO PUSH2 0xE0 JUMPI PUSH1 0x0 DUP1 REVERT JUMPDEST POP PUSH2 0xFB PUSH1 0x4 DUP1 CALLDATASIZE SUB DUP2 ADD SWAP1 PUSH2 0xF6 SWAP2 SWAP1 PUSH2 0x8C0 JUMP JUMPDEST PUSH2 0x19D JUMP JUMPDEST STOP JUMPDEST PUSH2 0x117 PUSH1 0x4 DUP1 CALLDATASIZE SUB DUP2 ADD SWAP1 PUSH2 0x112 SWAP2 SWAP1 PUSH2 0x900 JUMP JUMPDEST PUSH2 0x327 JUMP JUMPDEST STOP JUMPDEST CALLVALUE DUP1 ISZERO PUSH2 0x125 JUMPI PUSH1 0x0 DUP1 REVERT JUMPDEST POP PUSH2 0x12E PUSH2 0x492 JUMP JUMPDEST STOP JUMPDEST CALLVALUE DUP1 ISZERO PUSH2 0x13C JUMPI PUSH1 0x0 DUP1 REVERT JUMPDEST POP PUSH2 0x157 PUSH1 0x4 DUP1 CALLDATASIZE SUB DUP2 ADD SWAP1 PUSH2 0x152 SWAP2 SWAP1 PUSH2 0x92D JUMP JUMPDEST PUSH2 0x731 JUMP JUMPDEST PUSH1 0x40 MLOAD PUSH2 0x164 SWAP2 SWAP1 PUSH2 0x969 JUMP JUMPDEST PUSH1 0x40 MLOAD DUP1 SWAP2 SUB SWAP1 RETURN JUMPDEST PUSH1 0x2 PUSH1 0x20 MSTORE DUP1 PUSH1 0x0 MSTORE PUSH1 0x40 PUSH1 0x0 KECCAK256 PUSH1 0x0 SWAP2 POP SWAP1 POP SLOAD DUP2 JUMP JUMPDEST PUSH1 0x1 PUSH1 0x20 MSTORE DUP1 PUSH1 0x0 MSTORE PUSH1 0x40 PUSH1 0x0 KECCAK256 PUSH1 0x0 SWAP2 POP SWAP1 POP SLOAD DUP2 JUMP JUMPDEST PUSH1 0x2 PUSH1 0x4 SLOAD EQ PUSH2 0x1AC JUMPI PUSH1 0x0 DUP1 REVERT JUMPDEST PUSH1 0x2 PUSH1 0x3 SLOAD LT PUSH2 0x1BB JUMPI PUSH1 0x0 DUP1 REVERT JUMPDEST PUSH1 0x0 DUP3 DUP3 CALLER PUSH1 0x40 MLOAD PUSH1 0x20 ADD PUSH2 0x1D2 SWAP4 SWAP3 SWAP2 SWAP1 PUSH2 0xA0E JUMP JUMPDEST PUSH1 0x40 MLOAD PUSH1 0x20 DUP2 DUP4 SUB SUB DUP2 MSTORE SWAP1 PUSH1 0x40 MSTORE DUP1 MLOAD SWAP1 PUSH1 0x20 ADD KECCAK256 SWAP1 POP PUSH1 0x1 PUSH1 0x0 CALLER PUSH20 0xFFFFFFFFFFFFFFFFFFFFFFFFFFFFFFFFFFFFFFFF AND PUSH20 0xFFFFFFFFFFFFFFFFFFFFFFFFFFFFFFFFFFFFFFFF AND DUP2 MSTORE PUSH1 0x20 ADD SWAP1 DUP2 MSTORE PUSH1 0x20 ADD PUSH1 0x0 KECCAK256 SLOAD DUP2 EQ PUSH2 0x235 JUMPI PUSH1 0x0 DUP1 REVERT JUMPDEST PUSH1 0x0 PUSH1 0x2 PUSH1 0x0 CALLER PUSH20 0xFFFFFFFFFFFFFFFFFFFFFFFFFFFFFFFFFFFFFFFF AND PUSH20 0xFFFFFFFFFFFFFFFFFFFFFFFFFFFFFFFFFFFFFFFF AND DUP2 MSTORE PUSH1 0x20 ADD SWAP1 DUP2 MSTORE PUSH1 0x20 ADD PUSH1 0x0 KECCAK256 SLOAD EQ PUSH2 0x281 JUMPI PUSH1 0x0 DUP1 REVERT JUMPDEST PUSH1 0x1 PUSH1 0x0 CALLER PUSH20 0xFFFFFFFFFFFFFFFFFFFFFFFFFFFFFFFFFFFFFFFF AND PUSH20 0xFFFFFFFFFFFFFFFFFFFFFFFFFFFFFFFFFFFFFFFF AND DUP2 MSTORE PUSH1 0x20 ADD SWAP1 DUP2 MSTORE PUSH1 0x20 ADD PUSH1 0x0 KECCAK256 PUSH1 0x0 SWAP1 SSTORE DUP3 PUSH1 0x2 PUSH1 0x0 CALLER PUSH20 0xFFFFFFFFFFFFFFFFFFFFFFFFFFFFFFFFFFFFFFFF AND PUSH20 0xFFFFFFFFFFFFFFFFFFFFFFFFFFFFFFFFFFFFFFFF AND DUP2 MSTORE PUSH1 0x20 ADD SWAP1 DUP2 MSTORE PUSH1 0x20 ADD PUSH1 0x0 KECCAK256 DUP2 SWAP1 SSTORE POP PUSH1 0x1 PUSH1 0x3 PUSH1 0x0 DUP3 DUP3 SLOAD PUSH2 0x31B SWAP2 SWAP1 PUSH2 0xA7A JUMP JUMPDEST SWAP3 POP POP DUP2 SWAP1 SSTORE POP POP POP POP JUMP JUMPDEST PUSH1 0x2 PUSH1 0x4 SLOAD LT PUSH2 0x336 JUMPI PUSH1 0x0 DUP1 REVERT JUMPDEST PUSH1 0x0 DUP1 SHL PUSH1 0x1 PUSH1 0x0 CALLER PUSH20 0xFFFFFFFFFFFFFFFFFFFFFFFFFFFFFFFFFFFFFFFF AND PUSH20 0xFFFFFFFFFFFFFFFFFFFFFFFFFFFFFFFFFFFFFFFF AND DUP2 MSTORE PUSH1 0x20 ADD SWAP1 DUP2 MSTORE PUSH1 0x20 ADD PUSH1 0x0 KECCAK256 SLOAD EQ PUSH2 0x384 JUMPI PUSH1 0x0 DUP1 REVERT JUMPDEST CALLER PUSH1 0x0 PUSH1 0x4 SLOAD DUP2 SLOAD DUP2 LT PUSH2 0x39B JUMPI PUSH2 0x39A PUSH2 0xAAE JUMP JUMPDEST JUMPDEST SWAP1 PUSH1 0x0 MSTORE PUSH1 0x20 PUSH1 0x0 KECCAK256 ADD PUSH1 0x0 PUSH2 0x100 EXP DUP2 SLOAD DUP2 PUSH20 0xFFFFFFFFFFFFFFFFFFFFFFFFFFFFFFFFFFFFFFFF MUL NOT AND SWAP1 DUP4 PUSH20 0xFFFFFFFFFFFFFFFFFFFFFFFFFFFFFFFFFFFFFFFF AND MUL OR SWAP1 SSTORE POP DUP1 PUSH1 0x1 PUSH1 0x0 CALLER PUSH20 0xFFFFFFFFFFFFFFFFFFFFFFFFFFFFFFFFFFFFFFFF AND PUSH20 0xFFFFFFFFFFFFFFFFFFFFFFFFFFFFFFFFFFFFFFFF AND DUP2 MSTORE PUSH1 0x20 ADD SWAP1 DUP2 MSTORE PUSH1 0x20 ADD PUSH1 0x0 KECCAK256 DUP2 SWAP1 SSTORE POP PUSH1 0x1 PUSH1 0x4 PUSH1 0x0 DUP3 DUP3 SLOAD PUSH2 0x43A SWAP2 SWAP1 PUSH2 0xA7A JUMP JUMPDEST SWAP3 POP POP DUP2 SWAP1 SSTORE POP CALLER PUSH20 0xFFFFFFFFFFFFFFFFFFFFFFFFFFFFFFFFFFFFFFFF AND PUSH32 0xF31129D0FCFEE805FD659B5716FD79D2F7B86A3E1A268808E2B563CACB0226F1 CALLVALUE PUSH1 0x40 MLOAD PUSH2 0x487 SWAP2 SWAP1 PUSH2 0x819 JUMP JUMPDEST PUSH1 0x40 MLOAD DUP1 SWAP2 SUB SWAP1 LOG2 POP JUMP JUMPDEST PUSH1 0x2 PUSH1 0x4 SLOAD EQ PUSH2 0x4A1 JUMPI PUSH1 0x0 DUP1 REVERT JUMPDEST PUSH1 0x2 PUSH1 0x4 SLOAD EQ PUSH2 0x4B0 JUMPI PUSH1 0x0 DUP1 REVERT JUMPDEST PUSH1 0x0 DUP1 PUSH1 0x0 DUP2 SLOAD DUP2 LT PUSH2 0x4C6 JUMPI PUSH2 0x4C5 PUSH2 0xAAE JUMP JUMPDEST JUMPDEST SWAP1 PUSH1 0x0 MSTORE PUSH1 0x20 PUSH1 0x0 KECCAK256 ADD PUSH1 0x0 SWAP1 SLOAD SWAP1 PUSH2 0x100 EXP SWAP1 DIV PUSH20 0xFFFFFFFFFFFFFFFFFFFFFFFFFFFFFFFFFFFFFFFF AND SWAP1 POP PUSH1 0x0 DUP1 PUSH1 0x1 DUP2 SLOAD DUP2 LT PUSH2 0x509 JUMPI PUSH2 0x508 PUSH2 0xAAE JUMP JUMPDEST JUMPDEST SWAP1 PUSH1 0x0 MSTORE PUSH1 0x20 PUSH1 0x0 KECCAK256 ADD PUSH1 0x0 SWAP1 SLOAD SWAP1 PUSH2 0x100 EXP SWAP1 DIV PUSH20 0xFFFFFFFFFFFFFFFFFFFFFFFFFFFFFFFFFFFFFFFF AND SWAP1 POP PUSH1 0x0 PUSH1 0x2 PUSH1 0x0 DUP5 PUSH20 0xFFFFFFFFFFFFFFFFFFFFFFFFFFFFFFFFFFFFFFFF AND PUSH20 0xFFFFFFFFFFFFFFFFFFFFFFFFFFFFFFFFFFFFFFFF AND DUP2 MSTORE PUSH1 0x20 ADD SWAP1 DUP2 MSTORE PUSH1 0x20 ADD PUSH1 0x0 KECCAK256 SLOAD SWAP1 POP PUSH1 0x0 PUSH1 0x2 PUSH1 0x0 DUP5 PUSH20 0xFFFFFFFFFFFFFFFFFFFFFFFFFFFFFFFFFFFFFFFF AND PUSH20 0xFFFFFFFFFFFFFFFFFFFFFFFFFFFFFFFFFFFFFFFF AND DUP2 MSTORE PUSH1 0x20 ADD SWAP1 DUP2 MSTORE PUSH1 0x20 ADD PUSH1 0x0 KECCAK256 SLOAD SWAP1 POP PUSH1 0x1 DUP3 EQ DUP1 ISZERO PUSH2 0x5CE JUMPI POP PUSH1 0x3 DUP2 EQ JUMPDEST ISZERO PUSH2 0x61F JUMPI DUP4 PUSH20 0xFFFFFFFFFFFFFFFFFFFFFFFFFFFFFFFFFFFFFFFF AND PUSH2 0x8FC SELFBALANCE SWAP1 DUP2 ISZERO MUL SWAP1 PUSH1 0x40 MLOAD PUSH1 0x0 PUSH1 0x40 MLOAD DUP1 DUP4 SUB DUP2 DUP6 DUP9 DUP9 CALL SWAP4 POP POP POP POP ISZERO DUP1 ISZERO PUSH2 0x619 JUMPI RETURNDATASIZE PUSH1 0x0 DUP1 RETURNDATACOPY RETURNDATASIZE PUSH1 0x0 REVERT JUMPDEST POP PUSH2 0x72B JUMP JUMPDEST PUSH1 0x2 DUP3 EQ DUP1 ISZERO PUSH2 0x62F JUMPI POP PUSH1 0x1 DUP2 EQ JUMPDEST ISZERO PUSH2 0x680 JUMPI DUP4 PUSH20 0xFFFFFFFFFFFFFFFFFFFFFFFFFFFFFFFFFFFFFFFF AND PUSH2 0x8FC SELFBALANCE SWAP1 DUP2 ISZERO MUL SWAP1 PUSH1 0x40 MLOAD PUSH1 0x0 PUSH1 0x40 MLOAD DUP1 DUP4 SUB DUP2 DUP6 DUP9 DUP9 CALL SWAP4 POP POP POP POP ISZERO DUP1 ISZERO PUSH2 0x67A JUMPI RETURNDATASIZE PUSH1 0x0 DUP1 RETURNDATACOPY RETURNDATASIZE PUSH1 0x0 REVERT JUMPDEST POP PUSH2 0x72A JUMP JUMPDEST PUSH1 0x3 DUP3 EQ DUP1 ISZERO PUSH2 0x690 JUMPI POP PUSH1 0x2 DUP2 EQ JUMPDEST ISZERO PUSH2 0x6E1 JUMPI DUP4 PUSH20 0xFFFFFFFFFFFFFFFFFFFFFFFFFFFFFFFFFFFFFFFF AND PUSH2 0x8FC SELFBALANCE SWAP1 DUP2 ISZERO MUL SWAP1 PUSH1 0x40 MLOAD PUSH1 0x0 PUSH1 0x40 MLOAD DUP1 DUP4 SUB DUP2 DUP6 DUP9 DUP9 CALL SWAP4 POP POP POP POP ISZERO DUP1 ISZERO PUSH2 0x6DB JUMPI RETURNDATASIZE PUSH1 0x0 DUP1 RETURNDATACOPY RETURNDATASIZE PUSH1 0x0 REVERT JUMPDEST POP PUSH2 0x729 JUMP JUMPDEST DUP3 PUSH20 0xFFFFFFFFFFFFFFFFFFFFFFFFFFFFFFFFFFFFFFFF AND PUSH2 0x8FC SELFBALANCE SWAP1 DUP2 ISZERO MUL SWAP1 PUSH1 0x40 MLOAD PUSH1 0x0 PUSH1 0x40 MLOAD DUP1 DUP4 SUB DUP2 DUP6 DUP9 DUP9 CALL SWAP4 POP POP POP POP ISZERO DUP1 ISZERO PUSH2 0x727 JUMPI RETURNDATASIZE PUSH1 0x0 DUP1 RETURNDATACOPY RETURNDATASIZE PUSH1 0x0 REVERT JUMPDEST POP JUMPDEST JUMPDEST JUMPDEST POP POP POP POP JUMP JUMPDEST PUSH1 0x0 DUP2 DUP2 SLOAD DUP2 LT PUSH2 0x741 JUMPI PUSH1 0x0 DUP1 REVERT JUMPDEST SWAP1 PUSH1 0x0 MSTORE PUSH1 0x20 PUSH1 0x0 KECCAK256 ADD PUSH1 0x0 SWAP2 POP SLOAD SWAP1 PUSH2 0x100 EXP SWAP1 DIV PUSH20 0xFFFFFFFFFFFFFFFFFFFFFFFFFFFFFFFFFFFFFFFF AND DUP2 JUMP JUMPDEST PUSH1 0x0 DUP1 REVERT JUMPDEST PUSH1 0x0 PUSH20 0xFFFFFFFFFFFFFFFFFFFFFFFFFFFFFFFFFFFFFFFF DUP3 AND SWAP1 POP SWAP2 SWAP1 POP JUMP JUMPDEST PUSH1 0x0 PUSH2 0x7A0 DUP3 PUSH2 0x775 JUMP JUMPDEST SWAP1 POP SWAP2 SWAP1 POP JUMP JUMPDEST PUSH2 0x7B0 DUP2 PUSH2 0x795 JUMP JUMPDEST DUP2 EQ PUSH2 0x7BB JUMPI PUSH1 0x0 DUP1 REVERT JUMPDEST POP JUMP JUMPDEST PUSH1 0x0 DUP2 CALLDATALOAD SWAP1 POP PUSH2 0x7CD DUP2 PUSH2 0x7A7 JUMP JUMPDEST SWAP3 SWAP2 POP POP JUMP JUMPDEST PUSH1 0x0 PUSH1 0x20 DUP3 DUP5 SUB SLT ISZERO PUSH2 0x7E9 JUMPI PUSH2 0x7E8 PUSH2 0x770 JUMP JUMPDEST JUMPDEST PUSH1 0x0 PUSH2 0x7F7 DUP5 DUP3 DUP6 ADD PUSH2 0x7BE JUMP JUMPDEST SWAP2 POP POP SWAP3 SWAP2 POP POP JUMP JUMPDEST PUSH1 0x0 DUP2 SWAP1 POP SWAP2 SWAP1 POP JUMP JUMPDEST PUSH2 0x813 DUP2 PUSH2 0x800 JUMP JUMPDEST DUP3 MSTORE POP POP JUMP JUMPDEST PUSH1 0x0 PUSH1 0x20 DUP3 ADD SWAP1 POP PUSH2 0x82E PUSH1 0x0 DUP4 ADD DUP5 PUSH2 0x80A JUMP JUMPDEST SWAP3 SWAP2 POP POP JUMP JUMPDEST PUSH1 0x0 DUP2 SWAP1 POP SWAP2 SWAP1 POP JUMP JUMPDEST PUSH2 0x847 DUP2 PUSH2 0x834 JUMP JUMPDEST DUP3 MSTORE POP POP JUMP JUMPDEST PUSH1 0x0 PUSH1 0x20 DUP3 ADD SWAP1 POP PUSH2 0x862 PUSH1 0x0 DUP4 ADD DUP5 PUSH2 0x83E JUMP JUMPDEST SWAP3 SWAP2 POP POP JUMP JUMPDEST PUSH2 0x871 DUP2 PUSH2 0x800 JUMP JUMPDEST DUP2 EQ PUSH2 0x87C JUMPI PUSH1 0x0 DUP1 REVERT JUMPDEST POP JUMP JUMPDEST PUSH1 0x0 DUP2 CALLDATALOAD SWAP1 POP PUSH2 0x88E DUP2 PUSH2 0x868 JUMP JUMPDEST SWAP3 SWAP2 POP POP JUMP JUMPDEST PUSH2 0x89D DUP2 PUSH2 0x834 JUMP JUMPDEST DUP2 EQ PUSH2 0x8A8 JUMPI PUSH1 0x0 DUP1 REVERT JUMPDEST POP JUMP JUMPDEST PUSH1 0x0 DUP2 CALLDATALOAD SWAP1 POP PUSH2 0x8BA DUP2 PUSH2 0x894 JUMP JUMPDEST SWAP3 SWAP2 POP POP JUMP JUMPDEST PUSH1 0x0 DUP1 PUSH1 0x40 DUP4 DUP6 SUB SLT ISZERO PUSH2 0x8D7 JUMPI PUSH2 0x8D6 PUSH2 0x770 JUMP JUMPDEST JUMPDEST PUSH1 0x0 PUSH2 0x8E5 DUP6 DUP3 DUP7 ADD PUSH2 0x87F JUMP JUMPDEST SWAP3 POP POP PUSH1 0x20 PUSH2 0x8F6 DUP6 DUP3 DUP7 ADD PUSH2 0x8AB JUMP JUMPDEST SWAP2 POP POP SWAP3 POP SWAP3 SWAP1 POP JUMP JUMPDEST PUSH1 0x0 PUSH1 0x20 DUP3 DUP5 SUB SLT ISZERO PUSH2 0x916 JUMPI PUSH2 0x915 PUSH2 0x770 JUMP JUMPDEST JUMPDEST PUSH1 0x0 PUSH2 0x924 DUP5 DUP3 DUP6 ADD PUSH2 0x8AB JUMP JUMPDEST SWAP2 POP POP SWAP3 SWAP2 POP POP JUMP JUMPDEST PUSH1 0x0 PUSH1 0x20 DUP3 DUP5 SUB SLT ISZERO PUSH2 0x943 JUMPI PUSH2 0x942 PUSH2 0x770 JUMP JUMPDEST JUMPDEST PUSH1 0x0 PUSH2 0x951 DUP5 DUP3 DUP6 ADD PUSH2 0x87F JUMP JUMPDEST SWAP2 POP POP SWAP3 SWAP2 POP POP JUMP JUMPDEST PUSH2 0x963 DUP2 PUSH2 0x795 JUMP JUMPDEST DUP3 MSTORE POP POP JUMP JUMPDEST PUSH1 0x0 PUSH1 0x20 DUP3 ADD SWAP1 POP PUSH2 0x97E PUSH1 0x0 DUP4 ADD DUP5 PUSH2 0x95A JUMP JUMPDEST SWAP3 SWAP2 POP POP JUMP JUMPDEST PUSH1 0x0 DUP2 SWAP1 POP SWAP2 SWAP1 POP JUMP JUMPDEST PUSH2 0x99F PUSH2 0x99A DUP3 PUSH2 0x800 JUMP JUMPDEST PUSH2 0x984 JUMP JUMPDEST DUP3 MSTORE POP POP JUMP JUMPDEST PUSH1 0x0 DUP2 SWAP1 POP SWAP2 SWAP1 POP JUMP JUMPDEST PUSH2 0x9C0 PUSH2 0x9BB DUP3 PUSH2 0x834 JUMP JUMPDEST PUSH2 0x9A5 JUMP JUMPDEST DUP3 MSTORE POP POP JUMP JUMPDEST PUSH1 0x0 DUP2 PUSH1 0x60 SHL SWAP1 POP SWAP2 SWAP1 POP JUMP JUMPDEST PUSH1 0x0 PUSH2 0x9DE DUP3 PUSH2 0x9C6 JUMP JUMPDEST SWAP1 POP SWAP2 SWAP1 POP JUMP JUMPDEST PUSH1 0x0 PUSH2 0x9F0 DUP3 PUSH2 0x9D3 JUMP JUMPDEST SWAP1 POP SWAP2 SWAP1 POP JUMP JUMPDEST PUSH2 0xA08 PUSH2 0xA03 DUP3 PUSH2 0x795 JUMP JUMPDEST PUSH2 0x9E5 JUMP JUMPDEST DUP3 MSTORE POP POP JUMP JUMPDEST PUSH1 0x0 PUSH2 0xA1A DUP3 DUP7 PUSH2 0x98E JUMP JUMPDEST PUSH1 0x20 DUP3 ADD SWAP2 POP PUSH2 0xA2A DUP3 DUP6 PUSH2 0x9AF JUMP JUMPDEST PUSH1 0x20 DUP3 ADD SWAP2 POP PUSH2 0xA3A DUP3 DUP5 PUSH2 0x9F7 JUMP JUMPDEST PUSH1 0x14 DUP3 ADD SWAP2 POP DUP2 SWAP1 POP SWAP5 SWAP4 POP POP POP POP JUMP JUMPDEST PUSH32 0x4E487B7100000000000000000000000000000000000000000000000000000000 PUSH1 0x0 MSTORE PUSH1 0x11 PUSH1 0x4 MSTORE PUSH1 0x24 PUSH1 0x0 REVERT JUMPDEST PUSH1 0x0 PUSH2 0xA85 DUP3 PUSH2 0x800 JUMP JUMPDEST SWAP2 POP PUSH2 0xA90 DUP4 PUSH2 0x800 JUMP JUMPDEST SWAP3 POP DUP3 DUP3 ADD SWAP1 POP DUP1 DUP3 GT ISZERO PUSH2 0xAA8 JUMPI PUSH2 0xAA7 PUSH2 0xA4B JUMP JUMPDEST JUMPDEST SWAP3 SWAP2 POP POP JUMP JUMPDEST PUSH32 0x4E487B7100000000000000000000000000000000000000000000000000000000 PUSH1 0x0 MSTORE PUSH1 0x32 PUSH1 0x4 MSTORE PUSH1 0x24 PUSH1 0x0 REVERT INVALID LOG2 PUSH5 0x6970667358 0x22 SLT KECCAK256 0xC5 ISZERO PUSH16 0x408F13DC68A210B5039B518A0A39633D 0xD0 CALLDATALOAD 0x5D DUP10 DUP1 MSTORE PUSH31 0xA447B3289D4064736F6C634300081100330000000000000000000000000000 "
				},
				"gasEstimates": {
					"creation": {
						"codeDepositCost": "567000",
						"executionCost": "infinite",
						"totalCost": "infinite"
					},
					"external": {
						"commitMove(bytes32)": "infinite",
						"commits(address)": "2814",
						"payToWinner()": "infinite",
						"player2move(address)": "2792",
						"players(uint256)": "5044",
						"revealMove(uint256,bytes32)": "infinite"
					}
				},
				"methodIdentifiers": {
					"commitMove(bytes32)": "a9ea37b6",
					"commits(address)": "7b43a8e6",
					"payToWinner()": "d3e8cff9",
					"player2move(address)": "0d5cbcfd",
					"players(uint256)": "f71d96cb",
					"revealMove(uint256,bytes32)": "7d1ddd34"
				}
			},
			"storageLayout": {
				"storage": [
					{
						"astId": 9,
						"contract": "contracts/ComRev.sol:ComRev",
						"label": "players",
						"offset": 0,
						"slot": "0",
						"type": "t_array(t_address)dyn_storage"
					},
					{
						"astId": 13,
						"contract": "contracts/ComRev.sol:ComRev",
						"label": "commits",
						"offset": 0,
						"slot": "1",
						"type": "t_mapping(t_address,t_bytes32)"
					},
					{
						"astId": 17,
						"contract": "contracts/ComRev.sol:ComRev",
						"label": "player2move",
						"offset": 0,
						"slot": "2",
						"type": "t_mapping(t_address,t_uint256)"
					},
					{
						"astId": 26,
						"contract": "contracts/ComRev.sol:ComRev",
						"label": "playersRevealed",
						"offset": 0,
						"slot": "3",
						"type": "t_uint256"
					},
					{
						"astId": 29,
						"contract": "contracts/ComRev.sol:ComRev",
						"label": "currentPlayer",
						"offset": 0,
						"slot": "4",
						"type": "t_uint256"
					}
				],
				"types": {
					"t_address": {
						"encoding": "inplace",
						"label": "address",
						"numberOfBytes": "20"
					},
					"t_array(t_address)dyn_storage": {
						"base": "t_address",
						"encoding": "dynamic_array",
						"label": "address[]",
						"numberOfBytes": "32"
					},
					"t_bytes32": {
						"encoding": "inplace",
						"label": "bytes32",
						"numberOfBytes": "32"
					},
					"t_mapping(t_address,t_bytes32)": {
						"encoding": "mapping",
						"key": "t_address",
						"label": "mapping(address => bytes32)",
						"numberOfBytes": "32",
						"value": "t_bytes32"
					},
					"t_mapping(t_address,t_uint256)": {
						"encoding": "mapping",
						"key": "t_address",
						"label": "mapping(address => uint256)",
						"numberOfBytes": "32",
						"value": "t_uint256"
					},
					"t_uint256": {
						"encoding": "inplace",
						"label": "uint256",
						"numberOfBytes": "32"
					}
				}
			},
			"userdoc": {
				"kind": "user",
				"methods": {},
				"version": 1
			}
		}
	}
}